{
  "_format": "hh-sol-artifact-1",
  "contractName": "LoyaltyProgram",
  "sourceName": "contracts/SadakatSozlesmesi.sol",
  "abi": [
    {
      "inputs": [
        {
          "internalType": "contract HititCoin",
          "name": "_token",
          "type": "address"
        },
        {
          "internalType": "uint256",
          "name": "_pointsPerToken",
          "type": "uint256"
        }
      ],
      "stateMutability": "nonpayable",
      "type": "constructor"
    },
    {
      "anonymous": false,
      "inputs": [
        {
          "indexed": true,
          "internalType": "address",
          "name": "user",
          "type": "address"
        },
        {
          "indexed": false,
          "internalType": "uint256",
          "name": "points",
          "type": "uint256"
        }
      ],
      "name": "PointsEarned",
      "type": "event"
    },
    {
      "anonymous": false,
      "inputs": [
        {
          "indexed": true,
          "internalType": "address",
          "name": "user",
          "type": "address"
        },
        {
          "indexed": false,
          "internalType": "uint256",
          "name": "points",
          "type": "uint256"
        },
        {
          "indexed": false,
          "internalType": "uint256",
          "name": "amount",
          "type": "uint256"
        }
      ],
      "name": "PointsRedeemed",
      "type": "event"
    },
    {
      "inputs": [
        {
          "internalType": "address",
          "name": "user",
          "type": "address"
        },
        {
          "internalType": "uint256",
          "name": "amountSpent",
          "type": "uint256"
        }
      ],
      "name": "earnPoints",
      "outputs": [],
      "stateMutability": "nonpayable",
      "type": "function"
    },
    {
      "inputs": [
        {
          "internalType": "address",
          "name": "",
          "type": "address"
        }
      ],
      "name": "loyaltyPoints",
      "outputs": [
        {
          "internalType": "uint256",
          "name": "",
          "type": "uint256"
        }
      ],
      "stateMutability": "view",
      "type": "function"
    },
    {
      "inputs": [],
      "name": "pointsPerToken",
      "outputs": [
        {
          "internalType": "uint256",
          "name": "",
          "type": "uint256"
        }
      ],
      "stateMutability": "view",
      "type": "function"
    },
    {
      "inputs": [
        {
          "internalType": "uint256",
          "name": "points",
          "type": "uint256"
        }
      ],
      "name": "redeemPoints",
      "outputs": [],
      "stateMutability": "nonpayable",
      "type": "function"
    },
    {
      "inputs": [],
      "name": "token",
      "outputs": [
        {
          "internalType": "contract HititCoin",
          "name": "",
          "type": "address"
        }
      ],
      "stateMutability": "view",
      "type": "function"
    }
  ],
  "bytecode": "0x608060405234801561001057600080fd5b50604051610a87380380610a878339818101604052810190610032919061012b565b816000806101000a81548173ffffffffffffffffffffffffffffffffffffffff021916908373ffffffffffffffffffffffffffffffffffffffff16021790555080600281905550505061016b565b600080fd5b600073ffffffffffffffffffffffffffffffffffffffff82169050919050565b60006100b082610085565b9050919050565b60006100c2826100a5565b9050919050565b6100d2816100b7565b81146100dd57600080fd5b50565b6000815190506100ef816100c9565b92915050565b6000819050919050565b610108816100f5565b811461011357600080fd5b50565b600081519050610125816100ff565b92915050565b6000806040838503121561014257610141610080565b5b6000610150858286016100e0565b925050602061016185828601610116565b9150509250929050565b61090d8061017a6000396000f3fe608060405234801561001057600080fd5b50600436106100575760003560e01c80634fcb6f3a1461005c578063d45e42591461007a578063d909d5e3146100aa578063e92e92e7146100c6578063fc0c546a146100e2575b600080fd5b610064610100565b6040516100719190610431565b60405180910390f35b610094600480360381019061008f91906104af565b610106565b6040516100a19190610431565b60405180910390f35b6100c460048036038101906100bf9190610508565b61011e565b005b6100e060048036038101906100db9190610548565b6101d9565b005b6100ea6103f4565b6040516100f791906105d4565b60405180910390f35b60025481565b60016020528060005260406000206000915090505481565b60006002548261012e919061061e565b905080600160008573ffffffffffffffffffffffffffffffffffffffff1673ffffffffffffffffffffffffffffffffffffffff168152602001908152602001600020600082825461017f9190610660565b925050819055508273ffffffffffffffffffffffffffffffffffffffff167f2c4c0dc427a50c4a69d2fc184c47a311acf950d8d2f289fbaee64e83e9b28967826040516101cc9190610431565b60405180910390a2505050565b80600160003373ffffffffffffffffffffffffffffffffffffffff1673ffffffffffffffffffffffffffffffffffffffff16815260200190815260200160002054101561025b576040517f08c379a0000000000000000000000000000000000000000000000000000000008152600401610252906106f1565b60405180910390fd5b60006002548261026b9190610740565b905081600160003373ffffffffffffffffffffffffffffffffffffffff1673ffffffffffffffffffffffffffffffffffffffff16815260200190815260200160002060008282546102bc9190610771565b9250508190555060008054906101000a900473ffffffffffffffffffffffffffffffffffffffff1673ffffffffffffffffffffffffffffffffffffffff1663a9059cbb33836040518363ffffffff1660e01b815260040161031e9291906107b4565b6020604051808303816000875af115801561033d573d6000803e3d6000fd5b505050506040513d601f19601f820116820180604052508101906103619190610815565b6103a0576040517f08c379a00000000000000000000000000000000000000000000000000000000081526004016103979061088e565b60405180910390fd5b3373ffffffffffffffffffffffffffffffffffffffff167f8489cc43a42dbf9d33259b91b6c919c19644ac3b135272570f33f989637a110283836040516103e89291906108ae565b60405180910390a25050565b60008054906101000a900473ffffffffffffffffffffffffffffffffffffffff1681565b6000819050919050565b61042b81610418565b82525050565b60006020820190506104466000830184610422565b92915050565b600080fd5b600073ffffffffffffffffffffffffffffffffffffffff82169050919050565b600061047c82610451565b9050919050565b61048c81610471565b811461049757600080fd5b50565b6000813590506104a981610483565b92915050565b6000602082840312156104c5576104c461044c565b5b60006104d38482850161049a565b91505092915050565b6104e581610418565b81146104f057600080fd5b50565b600081359050610502816104dc565b92915050565b6000806040838503121561051f5761051e61044c565b5b600061052d8582860161049a565b925050602061053e858286016104f3565b9150509250929050565b60006020828403121561055e5761055d61044c565b5b600061056c848285016104f3565b91505092915050565b6000819050919050565b600061059a61059561059084610451565b610575565b610451565b9050919050565b60006105ac8261057f565b9050919050565b60006105be826105a1565b9050919050565b6105ce816105b3565b82525050565b60006020820190506105e960008301846105c5565b92915050565b7f4e487b7100000000000000000000000000000000000000000000000000000000600052601160045260246000fd5b600061062982610418565b915061063483610418565b925082820261064281610418565b91508282048414831517610659576106586105ef565b5b5092915050565b600061066b82610418565b915061067683610418565b925082820190508082111561068e5761068d6105ef565b5b92915050565b600082825260208201905092915050565b7f4e6f7420656e6f75676820706f696e7473000000000000000000000000000000600082015250565b60006106db601183610694565b91506106e6826106a5565b602082019050919050565b6000602082019050818103600083015261070a816106ce565b9050919050565b7f4e487b7100000000000000000000000000000000000000000000000000000000600052601260045260246000fd5b600061074b82610418565b915061075683610418565b92508261076657610765610711565b5b828204905092915050565b600061077c82610418565b915061078783610418565b925082820390508181111561079f5761079e6105ef565b5b92915050565b6107ae81610471565b82525050565b60006040820190506107c960008301856107a5565b6107d66020830184610422565b9392505050565b60008115159050919050565b6107f2816107dd565b81146107fd57600080fd5b50565b60008151905061080f816107e9565b92915050565b60006020828403121561082b5761082a61044c565b5b600061083984828501610800565b91505092915050565b7f526564656d7074696f6e206661696c6564000000000000000000000000000000600082015250565b6000610878601183610694565b915061088382610842565b602082019050919050565b600060208201905081810360008301526108a78161086b565b9050919050565b60006040820190506108c36000830185610422565b6108d06020830184610422565b939250505056fea26469706673582212204b03107a8c5290f74c2e650da97a9d8aaec7c1dfecb042f12537929e473224eb64736f6c63430008140033",
  "linkReferences": {},
  "deployedLinkReferences": {}
}