{
  "_format": "hh-sol-artifact-1",
  "contractName": "InternationalTransfer",
  "sourceName": "contracts\\UluslararsıHavale.sol",
  "abi": [
    {
      "inputs": [
        {
          "internalType": "contract HititCoin",
          "name": "_token",
          "type": "address"
        }
      ],
      "stateMutability": "nonpayable",
      "type": "constructor"
    },
    {
      "anonymous": false,
      "inputs": [
        {
          "indexed": true,
          "internalType": "address",
          "name": "sender",
          "type": "address"
        },
        {
          "indexed": true,
          "internalType": "address",
          "name": "receiver",
          "type": "address"
        },
        {
          "indexed": false,
          "internalType": "uint256",
          "name": "amount",
          "type": "uint256"
        },
        {
          "indexed": false,
          "internalType": "uint256",
          "name": "transferId",
          "type": "uint256"
        }
      ],
      "name": "TransferCompleted",
      "type": "event"
    },
    {
      "anonymous": false,
      "inputs": [
        {
          "indexed": true,
          "internalType": "address",
          "name": "sender",
          "type": "address"
        },
        {
          "indexed": true,
          "internalType": "address",
          "name": "receiver",
          "type": "address"
        },
        {
          "indexed": false,
          "internalType": "uint256",
          "name": "amount",
          "type": "uint256"
        },
        {
          "indexed": false,
          "internalType": "uint256",
          "name": "transferId",
          "type": "uint256"
        }
      ],
      "name": "TransferInitiated",
      "type": "event"
    },
    {
      "inputs": [
        {
          "internalType": "address",
          "name": "receiver",
          "type": "address"
        },
        {
          "internalType": "uint256",
          "name": "amount",
          "type": "uint256"
        },
        {
          "internalType": "uint256",
          "name": "transferId",
          "type": "uint256"
        }
      ],
      "name": "completeTransfer",
      "outputs": [],
      "stateMutability": "nonpayable",
      "type": "function"
    },
    {
      "inputs": [
        {
          "internalType": "address",
          "name": "receiver",
          "type": "address"
        },
        {
          "internalType": "uint256",
          "name": "amount",
          "type": "uint256"
        },
        {
          "internalType": "uint256",
          "name": "transferId",
          "type": "uint256"
        }
      ],
      "name": "initiateTransfer",
      "outputs": [],
      "stateMutability": "nonpayable",
      "type": "function"
    },
    {
      "inputs": [],
      "name": "token",
      "outputs": [
        {
          "internalType": "contract HititCoin",
          "name": "",
          "type": "address"
        }
      ],
      "stateMutability": "view",
      "type": "function"
    }
  ],
  "bytecode": "0x608060405234801561001057600080fd5b5060405161080e38038061080e833981810160405281019061003291906100ed565b806000806101000a81548173ffffffffffffffffffffffffffffffffffffffff021916908373ffffffffffffffffffffffffffffffffffffffff1602179055505061011a565b600080fd5b600073ffffffffffffffffffffffffffffffffffffffff82169050919050565b60006100a88261007d565b9050919050565b60006100ba8261009d565b9050919050565b6100ca816100af565b81146100d557600080fd5b50565b6000815190506100e7816100c1565b92915050565b60006020828403121561010357610102610078565b5b6000610111848285016100d8565b91505092915050565b6106e5806101296000396000f3fe608060405234801561001057600080fd5b50600436106100415760003560e01c80630901d6f714610046578063e943382f14610062578063fc0c546a1461007e575b600080fd5b610060600480360381019061005b91906103ed565b61009c565b005b61007c600480360381019061007791906103ed565b6101e5565b005b610086610330565b604051610093919061049f565b60405180910390f35b60008054906101000a900473ffffffffffffffffffffffffffffffffffffffff1673ffffffffffffffffffffffffffffffffffffffff1663a9059cbb84846040518363ffffffff1660e01b81526004016100f79291906104d8565b6020604051808303816000875af1158015610116573d6000803e3d6000fd5b505050506040513d601f19601f8201168201806040525081019061013a9190610539565b610179576040517f08c379a0000000000000000000000000000000000000000000000000000000008152600401610170906105c3565b60405180910390fd5b8273ffffffffffffffffffffffffffffffffffffffff163073ffffffffffffffffffffffffffffffffffffffff167fde262946280c3e8da77cbdd4e1cb2bb291d456d68642901f1d6c896263a01da084846040516101d89291906105e3565b60405180910390a3505050565b60008054906101000a900473ffffffffffffffffffffffffffffffffffffffff1673ffffffffffffffffffffffffffffffffffffffff166323b872dd3330856040518463ffffffff1660e01b81526004016102429392919061060c565b6020604051808303816000875af1158015610261573d6000803e3d6000fd5b505050506040513d601f19601f820116820180604052508101906102859190610539565b6102c4576040517f08c379a00000000000000000000000000000000000000000000000000000000081526004016102bb9061068f565b60405180910390fd5b8273ffffffffffffffffffffffffffffffffffffffff163373ffffffffffffffffffffffffffffffffffffffff167f6abe792a4e9e702afbc17fdac3c94f6ed1d8c9a8e4917c99672474b3f775ab4384846040516103239291906105e3565b60405180910390a3505050565b60008054906101000a900473ffffffffffffffffffffffffffffffffffffffff1681565b600080fd5b600073ffffffffffffffffffffffffffffffffffffffff82169050919050565b600061038482610359565b9050919050565b61039481610379565b811461039f57600080fd5b50565b6000813590506103b18161038b565b92915050565b6000819050919050565b6103ca816103b7565b81146103d557600080fd5b50565b6000813590506103e7816103c1565b92915050565b60008060006060848603121561040657610405610354565b5b6000610414868287016103a2565b9350506020610425868287016103d8565b9250506040610436868287016103d8565b9150509250925092565b6000819050919050565b600061046561046061045b84610359565b610440565b610359565b9050919050565b60006104778261044a565b9050919050565b60006104898261046c565b9050919050565b6104998161047e565b82525050565b60006020820190506104b46000830184610490565b92915050565b6104c381610379565b82525050565b6104d2816103b7565b82525050565b60006040820190506104ed60008301856104ba565b6104fa60208301846104c9565b9392505050565b60008115159050919050565b61051681610501565b811461052157600080fd5b50565b6000815190506105338161050d565b92915050565b60006020828403121561054f5761054e610354565b5b600061055d84828501610524565b91505092915050565b600082825260208201905092915050565b7f5472616e7366657220636f6d706c6574696f6e206661696c6564000000000000600082015250565b60006105ad601a83610566565b91506105b882610577565b602082019050919050565b600060208201905081810360008301526105dc816105a0565b9050919050565b60006040820190506105f860008301856104c9565b61060560208301846104c9565b9392505050565b600060608201905061062160008301866104ba565b61062e60208301856104ba565b61063b60408301846104c9565b949350505050565b7f5472616e7366657220696e6974696174696f6e206661696c6564000000000000600082015250565b6000610679601a83610566565b915061068482610643565b602082019050919050565b600060208201905081810360008301526106a88161066c565b905091905056fea2646970667358221220087b9da28a2d945537fd878aec75af3e2cf907da53f1cc75d9e3fe9dd8aeb3a264736f6c63430008140033",
  "linkReferences": {},
  "deployedLinkReferences": {}
}