{
	"Desktop/solidity/tubitak/login.sol": {
		"UserPanel": {
			"abi": [
				{
					"anonymous": false,
					"inputs": [
						{
							"indexed": true,
							"internalType": "address",
							"name": "user",
							"type": "address"
						},
						{
							"indexed": false,
							"internalType": "string",
							"name": "username",
							"type": "string"
						}
					],
					"name": "UserRegistered",
					"type": "event"
				},
				{
					"inputs": [],
					"name": "getAllUsers",
					"outputs": [
						{
							"internalType": "address[]",
							"name": "",
							"type": "address[]"
						}
					],
					"stateMutability": "view",
					"type": "function"
				},
				{
					"inputs": [
						{
							"internalType": "address",
							"name": "userAddress",
							"type": "address"
						}
					],
					"name": "getUser",
					"outputs": [
						{
							"internalType": "string",
							"name": "",
							"type": "string"
						},
						{
							"internalType": "string",
							"name": "",
							"type": "string"
						}
					],
					"stateMutability": "view",
					"type": "function"
				},
				{
					"inputs": [
						{
							"internalType": "string",
							"name": "username",
							"type": "string"
						},
						{
							"internalType": "string",
							"name": "password",
							"type": "string"
						}
					],
					"name": "registerUser",
					"outputs": [],
					"stateMutability": "nonpayable",
					"type": "function"
				},
				{
					"inputs": [
						{
							"internalType": "address",
							"name": "userAddress",
							"type": "address"
						},
						{
							"internalType": "string",
							"name": "newUsername",
							"type": "string"
						},
						{
							"internalType": "string",
							"name": "newPassword",
							"type": "string"
						}
					],
					"name": "updateUser",
					"outputs": [],
					"stateMutability": "nonpayable",
					"type": "function"
				}
			],
			"devdoc": {
				"kind": "dev",
				"methods": {},
				"version": 1
			},
			"evm": {
				"assembly": "    /* \"Desktop/solidity/tubitak/login.sol\":60:2018  contract UserPanel {... */\n  mstore(0x40, 0x80)\n  callvalue\n  dup1\n  iszero\n  tag_1\n  jumpi\n  0x00\n  dup1\n  revert\ntag_1:\n  pop\n  dataSize(sub_0)\n  dup1\n  dataOffset(sub_0)\n  0x00\n  codecopy\n  0x00\n  return\nstop\n\nsub_0: assembly {\n        /* \"Desktop/solidity/tubitak/login.sol\":60:2018  contract UserPanel {... */\n      mstore(0x40, 0x80)\n      callvalue\n      dup1\n      iszero\n      tag_1\n      jumpi\n      0x00\n      dup1\n      revert\n    tag_1:\n      pop\n      jumpi(tag_2, lt(calldatasize, 0x04))\n      shr(0xe0, calldataload(0x00))\n      dup1\n      0x10e8b22d\n      eq\n      tag_3\n      jumpi\n      dup1\n      0x1d2e4afd\n      eq\n      tag_4\n      jumpi\n      dup1\n      0x6f77926b\n      eq\n      tag_5\n      jumpi\n      dup1\n      0xe2842d79\n      eq\n      tag_6\n      jumpi\n    tag_2:\n      0x00\n      dup1\n      revert\n        /* \"Desktop/solidity/tubitak/login.sol\":1725:2015  function updateUser(address userAddress, string memory newUsername, string memory newPassword) public {... */\n    tag_3:\n      tag_7\n      0x04\n      dup1\n      calldatasize\n      sub\n      dup2\n      add\n      swap1\n      tag_8\n      swap2\n      swap1\n      tag_9\n      jump\t// in\n    tag_8:\n      tag_10\n      jump\t// in\n    tag_7:\n      stop\n        /* \"Desktop/solidity/tubitak/login.sol\":699:1179  function registerUser(string memory username, string memory password) public {... */\n    tag_4:\n      tag_11\n      0x04\n      dup1\n      calldatasize\n      sub\n      dup2\n      add\n      swap1\n      tag_12\n      swap2\n      swap1\n      tag_13\n      jump\t// in\n    tag_12:\n      tag_14\n      jump\t// in\n    tag_11:\n      stop\n        /* \"Desktop/solidity/tubitak/login.sol\":1248:1497  function getUser(address userAddress) public view returns (string memory, string memory) {... */\n    tag_5:\n      tag_15\n      0x04\n      dup1\n      calldatasize\n      sub\n      dup2\n      add\n      swap1\n      tag_16\n      swap2\n      swap1\n      tag_17\n      jump\t// in\n    tag_16:\n      tag_18\n      jump\t// in\n    tag_15:\n      mload(0x40)\n      tag_19\n      swap3\n      swap2\n      swap1\n      tag_20\n      jump\t// in\n    tag_19:\n      mload(0x40)\n      dup1\n      swap2\n      sub\n      swap1\n      return\n        /* \"Desktop/solidity/tubitak/login.sol\":1564:1665  function getAllUsers() public view returns (address[] memory) {... */\n    tag_6:\n      tag_21\n      tag_22\n      jump\t// in\n    tag_21:\n      mload(0x40)\n      tag_23\n      swap2\n      swap1\n      tag_24\n      jump\t// in\n    tag_23:\n      mload(0x40)\n      dup1\n      swap2\n      sub\n      swap1\n      return\n        /* \"Desktop/solidity/tubitak/login.sol\":1725:2015  function updateUser(address userAddress, string memory newUsername, string memory newPassword) public {... */\n    tag_10:\n        /* \"Desktop/solidity/tubitak/login.sol\":1846:1851  users */\n      0x01\n        /* \"Desktop/solidity/tubitak/login.sol\":1846:1864  users[userAddress] */\n      0x00\n        /* \"Desktop/solidity/tubitak/login.sol\":1852:1863  userAddress */\n      dup5\n        /* \"Desktop/solidity/tubitak/login.sol\":1846:1864  users[userAddress] */\n      0xffffffffffffffffffffffffffffffffffffffff\n      and\n      0xffffffffffffffffffffffffffffffffffffffff\n      and\n      dup2\n      mstore\n      0x20\n      add\n      swap1\n      dup2\n      mstore\n      0x20\n      add\n      0x00\n      keccak256\n        /* \"Desktop/solidity/tubitak/login.sol\":1846:1875  users[userAddress].registered */\n      0x02\n      add\n      0x00\n      swap1\n      sload\n      swap1\n      0x0100\n      exp\n      swap1\n      div\n      0xff\n      and\n        /* \"Desktop/solidity/tubitak/login.sol\":1838:1903  require(users[userAddress].registered, \"Kullanici kayitli degil\") */\n      tag_26\n      jumpi\n      mload(0x40)\n      0x08c379a000000000000000000000000000000000000000000000000000000000\n      dup2\n      mstore\n      0x04\n      add\n      tag_27\n      swap1\n      tag_28\n      jump\t// in\n    tag_27:\n      mload(0x40)\n      dup1\n      swap2\n      sub\n      swap1\n      revert\n    tag_26:\n        /* \"Desktop/solidity/tubitak/login.sol\":1944:1955  newUsername */\n      dup2\n        /* \"Desktop/solidity/tubitak/login.sol\":1914:1919  users */\n      0x01\n        /* \"Desktop/solidity/tubitak/login.sol\":1914:1932  users[userAddress] */\n      0x00\n        /* \"Desktop/solidity/tubitak/login.sol\":1920:1931  userAddress */\n      dup6\n        /* \"Desktop/solidity/tubitak/login.sol\":1914:1932  users[userAddress] */\n      0xffffffffffffffffffffffffffffffffffffffff\n      and\n      0xffffffffffffffffffffffffffffffffffffffff\n      and\n      dup2\n      mstore\n      0x20\n      add\n      swap1\n      dup2\n      mstore\n      0x20\n      add\n      0x00\n      keccak256\n        /* \"Desktop/solidity/tubitak/login.sol\":1914:1941  users[userAddress].username */\n      0x00\n      add\n        /* \"Desktop/solidity/tubitak/login.sol\":1914:1955  users[userAddress].username = newUsername */\n      swap1\n      dup2\n      tag_29\n      swap2\n      swap1\n      tag_30\n      jump\t// in\n    tag_29:\n      pop\n        /* \"Desktop/solidity/tubitak/login.sol\":1996:2007  newPassword */\n      dup1\n        /* \"Desktop/solidity/tubitak/login.sol\":1966:1971  users */\n      0x01\n        /* \"Desktop/solidity/tubitak/login.sol\":1966:1984  users[userAddress] */\n      0x00\n        /* \"Desktop/solidity/tubitak/login.sol\":1972:1983  userAddress */\n      dup6\n        /* \"Desktop/solidity/tubitak/login.sol\":1966:1984  users[userAddress] */\n      0xffffffffffffffffffffffffffffffffffffffff\n      and\n      0xffffffffffffffffffffffffffffffffffffffff\n      and\n      dup2\n      mstore\n      0x20\n      add\n      swap1\n      dup2\n      mstore\n      0x20\n      add\n      0x00\n      keccak256\n        /* \"Desktop/solidity/tubitak/login.sol\":1966:1993  users[userAddress].password */\n      0x01\n      add\n        /* \"Desktop/solidity/tubitak/login.sol\":1966:2007  users[userAddress].password = newPassword */\n      swap1\n      dup2\n      tag_31\n      swap2\n      swap1\n      tag_30\n      jump\t// in\n    tag_31:\n      pop\n        /* \"Desktop/solidity/tubitak/login.sol\":1725:2015  function updateUser(address userAddress, string memory newUsername, string memory newPassword) public {... */\n      pop\n      pop\n      pop\n      jump\t// out\n        /* \"Desktop/solidity/tubitak/login.sol\":699:1179  function registerUser(string memory username, string memory password) public {... */\n    tag_14:\n        /* \"Desktop/solidity/tubitak/login.sol\":875:880  users */\n      0x01\n        /* \"Desktop/solidity/tubitak/login.sol\":875:892  users[msg.sender] */\n      0x00\n        /* \"Desktop/solidity/tubitak/login.sol\":881:891  msg.sender */\n      caller\n        /* \"Desktop/solidity/tubitak/login.sol\":875:892  users[msg.sender] */\n      0xffffffffffffffffffffffffffffffffffffffff\n      and\n      0xffffffffffffffffffffffffffffffffffffffff\n      and\n      dup2\n      mstore\n      0x20\n      add\n      swap1\n      dup2\n      mstore\n      0x20\n      add\n      0x00\n      keccak256\n        /* \"Desktop/solidity/tubitak/login.sol\":875:903  users[msg.sender].registered */\n      0x02\n      add\n      0x00\n      swap1\n      sload\n      swap1\n      0x0100\n      exp\n      swap1\n      div\n      0xff\n      and\n        /* \"Desktop/solidity/tubitak/login.sol\":874:903  !users[msg.sender].registered */\n      iszero\n        /* \"Desktop/solidity/tubitak/login.sol\":866:931  require(!users[msg.sender].registered, \"Kullanici zaten kayitli\") */\n      tag_33\n      jumpi\n      mload(0x40)\n      0x08c379a000000000000000000000000000000000000000000000000000000000\n      dup2\n      mstore\n      0x04\n      add\n      tag_34\n      swap1\n      tag_35\n      jump\t// in\n    tag_34:\n      mload(0x40)\n      dup1\n      swap2\n      sub\n      swap1\n      revert\n    tag_33:\n        /* \"Desktop/solidity/tubitak/login.sol\":1000:1030  User(username, password, true) */\n      mload(0x40)\n      dup1\n      0x60\n      add\n      0x40\n      mstore\n      dup1\n        /* \"Desktop/solidity/tubitak/login.sol\":1005:1013  username */\n      dup4\n        /* \"Desktop/solidity/tubitak/login.sol\":1000:1030  User(username, password, true) */\n      dup2\n      mstore\n      0x20\n      add\n        /* \"Desktop/solidity/tubitak/login.sol\":1015:1023  password */\n      dup3\n        /* \"Desktop/solidity/tubitak/login.sol\":1000:1030  User(username, password, true) */\n      dup2\n      mstore\n      0x20\n      add\n        /* \"Desktop/solidity/tubitak/login.sol\":1025:1029  true */\n      0x01\n        /* \"Desktop/solidity/tubitak/login.sol\":1000:1030  User(username, password, true) */\n      iszero\n      iszero\n      dup2\n      mstore\n      pop\n        /* \"Desktop/solidity/tubitak/login.sol\":980:985  users */\n      0x01\n        /* \"Desktop/solidity/tubitak/login.sol\":980:997  users[msg.sender] */\n      0x00\n        /* \"Desktop/solidity/tubitak/login.sol\":986:996  msg.sender */\n      caller\n        /* \"Desktop/solidity/tubitak/login.sol\":980:997  users[msg.sender] */\n      0xffffffffffffffffffffffffffffffffffffffff\n      and\n      0xffffffffffffffffffffffffffffffffffffffff\n      and\n      dup2\n      mstore\n      0x20\n      add\n      swap1\n      dup2\n      mstore\n      0x20\n      add\n      0x00\n      keccak256\n        /* \"Desktop/solidity/tubitak/login.sol\":980:1030  users[msg.sender] = User(username, password, true) */\n      0x00\n      dup3\n      add\n      mload\n      dup2\n      0x00\n      add\n      swap1\n      dup2\n      tag_36\n      swap2\n      swap1\n      tag_30\n      jump\t// in\n    tag_36:\n      pop\n      0x20\n      dup3\n      add\n      mload\n      dup2\n      0x01\n      add\n      swap1\n      dup2\n      tag_37\n      swap2\n      swap1\n      tag_30\n      jump\t// in\n    tag_37:\n      pop\n      0x40\n      dup3\n      add\n      mload\n      dup2\n      0x02\n      add\n      exp(0x0100, 0x00)\n      dup2\n      sload\n      dup2\n      0xff\n      mul\n      not\n      and\n      swap1\n      dup4\n      iszero\n      iszero\n      mul\n      or\n      swap1\n      sstore\n      pop\n      swap1\n      pop\n      pop\n        /* \"Desktop/solidity/tubitak/login.sol\":1041:1054  userAddresses */\n      0x00\n        /* \"Desktop/solidity/tubitak/login.sol\":1060:1070  msg.sender */\n      caller\n        /* \"Desktop/solidity/tubitak/login.sol\":1041:1071  userAddresses.push(msg.sender) */\n      swap1\n      dup1\n      0x01\n      dup2\n      sload\n      add\n      dup1\n      dup3\n      sstore\n      dup1\n      swap2\n      pop\n      pop\n      0x01\n      swap1\n      sub\n      swap1\n      0x00\n      mstore\n      keccak256(0x00, 0x20)\n      add\n      0x00\n      swap1\n      swap2\n      swap1\n      swap2\n      swap1\n      swap2\n      0x0100\n      exp\n      dup2\n      sload\n      dup2\n      0xffffffffffffffffffffffffffffffffffffffff\n      mul\n      not\n      and\n      swap1\n      dup4\n      0xffffffffffffffffffffffffffffffffffffffff\n      and\n      mul\n      or\n      swap1\n      sstore\n      pop\n        /* \"Desktop/solidity/tubitak/login.sol\":1150:1160  msg.sender */\n      caller\n        /* \"Desktop/solidity/tubitak/login.sol\":1135:1171  UserRegistered(msg.sender, username) */\n      0xffffffffffffffffffffffffffffffffffffffff\n      and\n      0x48cac28ad4dc618e15f4c2dd5e97751182f166de97b25618318b2112aa951a2f\n        /* \"Desktop/solidity/tubitak/login.sol\":1162:1170  username */\n      dup4\n        /* \"Desktop/solidity/tubitak/login.sol\":1135:1171  UserRegistered(msg.sender, username) */\n      mload(0x40)\n      tag_39\n      swap2\n      swap1\n      tag_40\n      jump\t// in\n    tag_39:\n      mload(0x40)\n      dup1\n      swap2\n      sub\n      swap1\n      log2\n        /* \"Desktop/solidity/tubitak/login.sol\":699:1179  function registerUser(string memory username, string memory password) public {... */\n      pop\n      pop\n      jump\t// out\n        /* \"Desktop/solidity/tubitak/login.sol\":1248:1497  function getUser(address userAddress) public view returns (string memory, string memory) {... */\n    tag_18:\n        /* \"Desktop/solidity/tubitak/login.sol\":1307:1320  string memory */\n      0x60\n        /* \"Desktop/solidity/tubitak/login.sol\":1322:1335  string memory */\n      dup1\n        /* \"Desktop/solidity/tubitak/login.sol\":1356:1361  users */\n      0x01\n        /* \"Desktop/solidity/tubitak/login.sol\":1356:1374  users[userAddress] */\n      0x00\n        /* \"Desktop/solidity/tubitak/login.sol\":1362:1373  userAddress */\n      dup5\n        /* \"Desktop/solidity/tubitak/login.sol\":1356:1374  users[userAddress] */\n      0xffffffffffffffffffffffffffffffffffffffff\n      and\n      0xffffffffffffffffffffffffffffffffffffffff\n      and\n      dup2\n      mstore\n      0x20\n      add\n      swap1\n      dup2\n      mstore\n      0x20\n      add\n      0x00\n      keccak256\n        /* \"Desktop/solidity/tubitak/login.sol\":1356:1385  users[userAddress].registered */\n      0x02\n      add\n      0x00\n      swap1\n      sload\n      swap1\n      0x0100\n      exp\n      swap1\n      div\n      0xff\n      and\n        /* \"Desktop/solidity/tubitak/login.sol\":1348:1413  require(users[userAddress].registered, \"Kullanici kayitli degil\") */\n      tag_42\n      jumpi\n      mload(0x40)\n      0x08c379a000000000000000000000000000000000000000000000000000000000\n      dup2\n      mstore\n      0x04\n      add\n      tag_43\n      swap1\n      tag_28\n      jump\t// in\n    tag_43:\n      mload(0x40)\n      dup1\n      swap2\n      sub\n      swap1\n      revert\n    tag_42:\n        /* \"Desktop/solidity/tubitak/login.sol\":1432:1437  users */\n      0x01\n        /* \"Desktop/solidity/tubitak/login.sol\":1432:1450  users[userAddress] */\n      0x00\n        /* \"Desktop/solidity/tubitak/login.sol\":1438:1449  userAddress */\n      dup5\n        /* \"Desktop/solidity/tubitak/login.sol\":1432:1450  users[userAddress] */\n      0xffffffffffffffffffffffffffffffffffffffff\n      and\n      0xffffffffffffffffffffffffffffffffffffffff\n      and\n      dup2\n      mstore\n      0x20\n      add\n      swap1\n      dup2\n      mstore\n      0x20\n      add\n      0x00\n      keccak256\n        /* \"Desktop/solidity/tubitak/login.sol\":1432:1459  users[userAddress].username */\n      0x00\n      add\n        /* \"Desktop/solidity/tubitak/login.sol\":1461:1466  users */\n      0x01\n        /* \"Desktop/solidity/tubitak/login.sol\":1461:1479  users[userAddress] */\n      0x00\n        /* \"Desktop/solidity/tubitak/login.sol\":1467:1478  userAddress */\n      dup6\n        /* \"Desktop/solidity/tubitak/login.sol\":1461:1479  users[userAddress] */\n      0xffffffffffffffffffffffffffffffffffffffff\n      and\n      0xffffffffffffffffffffffffffffffffffffffff\n      and\n      dup2\n      mstore\n      0x20\n      add\n      swap1\n      dup2\n      mstore\n      0x20\n      add\n      0x00\n      keccak256\n        /* \"Desktop/solidity/tubitak/login.sol\":1461:1488  users[userAddress].password */\n      0x01\n      add\n        /* \"Desktop/solidity/tubitak/login.sol\":1424:1489  return (users[userAddress].username, users[userAddress].password) */\n      dup2\n      dup1\n      sload\n      tag_44\n      swap1\n      tag_45\n      jump\t// in\n    tag_44:\n      dup1\n      0x1f\n      add\n      0x20\n      dup1\n      swap2\n      div\n      mul\n      0x20\n      add\n      mload(0x40)\n      swap1\n      dup2\n      add\n      0x40\n      mstore\n      dup1\n      swap3\n      swap2\n      swap1\n      dup2\n      dup2\n      mstore\n      0x20\n      add\n      dup3\n      dup1\n      sload\n      tag_46\n      swap1\n      tag_45\n      jump\t// in\n    tag_46:\n      dup1\n      iszero\n      tag_47\n      jumpi\n      dup1\n      0x1f\n      lt\n      tag_48\n      jumpi\n      0x0100\n      dup1\n      dup4\n      sload\n      div\n      mul\n      dup4\n      mstore\n      swap2\n      0x20\n      add\n      swap2\n      jump(tag_47)\n    tag_48:\n      dup3\n      add\n      swap2\n      swap1\n      0x00\n      mstore\n      keccak256(0x00, 0x20)\n      swap1\n    tag_49:\n      dup2\n      sload\n      dup2\n      mstore\n      swap1\n      0x01\n      add\n      swap1\n      0x20\n      add\n      dup1\n      dup4\n      gt\n      tag_49\n      jumpi\n      dup3\n      swap1\n      sub\n      0x1f\n      and\n      dup3\n      add\n      swap2\n    tag_47:\n      pop\n      pop\n      pop\n      pop\n      pop\n      swap2\n      pop\n      dup1\n      dup1\n      sload\n      tag_50\n      swap1\n      tag_45\n      jump\t// in\n    tag_50:\n      dup1\n      0x1f\n      add\n      0x20\n      dup1\n      swap2\n      div\n      mul\n      0x20\n      add\n      mload(0x40)\n      swap1\n      dup2\n      add\n      0x40\n      mstore\n      dup1\n      swap3\n      swap2\n      swap1\n      dup2\n      dup2\n      mstore\n      0x20\n      add\n      dup3\n      dup1\n      sload\n      tag_51\n      swap1\n      tag_45\n      jump\t// in\n    tag_51:\n      dup1\n      iszero\n      tag_52\n      jumpi\n      dup1\n      0x1f\n      lt\n      tag_53\n      jumpi\n      0x0100\n      dup1\n      dup4\n      sload\n      div\n      mul\n      dup4\n      mstore\n      swap2\n      0x20\n      add\n      swap2\n      jump(tag_52)\n    tag_53:\n      dup3\n      add\n      swap2\n      swap1\n      0x00\n      mstore\n      keccak256(0x00, 0x20)\n      swap1\n    tag_54:\n      dup2\n      sload\n      dup2\n      mstore\n      swap1\n      0x01\n      add\n      swap1\n      0x20\n      add\n      dup1\n      dup4\n      gt\n      tag_54\n      jumpi\n      dup3\n      swap1\n      sub\n      0x1f\n      and\n      dup3\n      add\n      swap2\n    tag_52:\n      pop\n      pop\n      pop\n      pop\n      pop\n      swap1\n      pop\n      swap2\n      pop\n      swap2\n      pop\n        /* \"Desktop/solidity/tubitak/login.sol\":1248:1497  function getUser(address userAddress) public view returns (string memory, string memory) {... */\n      swap2\n      pop\n      swap2\n      jump\t// out\n        /* \"Desktop/solidity/tubitak/login.sol\":1564:1665  function getAllUsers() public view returns (address[] memory) {... */\n    tag_22:\n        /* \"Desktop/solidity/tubitak/login.sol\":1608:1624  address[] memory */\n      0x60\n        /* \"Desktop/solidity/tubitak/login.sol\":1644:1657  userAddresses */\n      0x00\n        /* \"Desktop/solidity/tubitak/login.sol\":1637:1657  return userAddresses */\n      dup1\n      sload\n      dup1\n      0x20\n      mul\n      0x20\n      add\n      mload(0x40)\n      swap1\n      dup2\n      add\n      0x40\n      mstore\n      dup1\n      swap3\n      swap2\n      swap1\n      dup2\n      dup2\n      mstore\n      0x20\n      add\n      dup3\n      dup1\n      sload\n      dup1\n      iszero\n      tag_56\n      jumpi\n      0x20\n      mul\n      dup3\n      add\n      swap2\n      swap1\n      0x00\n      mstore\n      keccak256(0x00, 0x20)\n      swap1\n    tag_57:\n      dup2\n      0x00\n      swap1\n      sload\n      swap1\n      0x0100\n      exp\n      swap1\n      div\n      0xffffffffffffffffffffffffffffffffffffffff\n      and\n      0xffffffffffffffffffffffffffffffffffffffff\n      and\n      dup2\n      mstore\n      0x20\n      add\n      swap1\n      0x01\n      add\n      swap1\n      dup1\n      dup4\n      gt\n      tag_57\n      jumpi\n    tag_56:\n      pop\n      pop\n      pop\n      pop\n      pop\n      swap1\n      pop\n        /* \"Desktop/solidity/tubitak/login.sol\":1564:1665  function getAllUsers() public view returns (address[] memory) {... */\n      swap1\n      jump\t// out\n        /* \"#utility.yul\":7:82   */\n    tag_58:\n        /* \"#utility.yul\":40:46   */\n      0x00\n        /* \"#utility.yul\":73:75   */\n      0x40\n        /* \"#utility.yul\":67:76   */\n      mload\n        /* \"#utility.yul\":57:76   */\n      swap1\n      pop\n        /* \"#utility.yul\":7:82   */\n      swap1\n      jump\t// out\n        /* \"#utility.yul\":88:205   */\n    tag_59:\n        /* \"#utility.yul\":197:198   */\n      0x00\n        /* \"#utility.yul\":194:195   */\n      dup1\n        /* \"#utility.yul\":187:199   */\n      revert\n        /* \"#utility.yul\":211:328   */\n    tag_60:\n        /* \"#utility.yul\":320:321   */\n      0x00\n        /* \"#utility.yul\":317:318   */\n      dup1\n        /* \"#utility.yul\":310:322   */\n      revert\n        /* \"#utility.yul\":334:460   */\n    tag_61:\n        /* \"#utility.yul\":371:378   */\n      0x00\n        /* \"#utility.yul\":411:453   */\n      0xffffffffffffffffffffffffffffffffffffffff\n        /* \"#utility.yul\":404:409   */\n      dup3\n        /* \"#utility.yul\":400:454   */\n      and\n        /* \"#utility.yul\":389:454   */\n      swap1\n      pop\n        /* \"#utility.yul\":334:460   */\n      swap2\n      swap1\n      pop\n      jump\t// out\n        /* \"#utility.yul\":466:562   */\n    tag_62:\n        /* \"#utility.yul\":503:510   */\n      0x00\n        /* \"#utility.yul\":532:556   */\n      tag_113\n        /* \"#utility.yul\":550:555   */\n      dup3\n        /* \"#utility.yul\":532:556   */\n      tag_61\n      jump\t// in\n    tag_113:\n        /* \"#utility.yul\":521:556   */\n      swap1\n      pop\n        /* \"#utility.yul\":466:562   */\n      swap2\n      swap1\n      pop\n      jump\t// out\n        /* \"#utility.yul\":568:690   */\n    tag_63:\n        /* \"#utility.yul\":641:665   */\n      tag_115\n        /* \"#utility.yul\":659:664   */\n      dup2\n        /* \"#utility.yul\":641:665   */\n      tag_62\n      jump\t// in\n    tag_115:\n        /* \"#utility.yul\":634:639   */\n      dup2\n        /* \"#utility.yul\":631:666   */\n      eq\n        /* \"#utility.yul\":621:684   */\n      tag_116\n      jumpi\n        /* \"#utility.yul\":680:681   */\n      0x00\n        /* \"#utility.yul\":677:678   */\n      dup1\n        /* \"#utility.yul\":670:682   */\n      revert\n        /* \"#utility.yul\":621:684   */\n    tag_116:\n        /* \"#utility.yul\":568:690   */\n      pop\n      jump\t// out\n        /* \"#utility.yul\":696:835   */\n    tag_64:\n        /* \"#utility.yul\":742:747   */\n      0x00\n        /* \"#utility.yul\":780:786   */\n      dup2\n        /* \"#utility.yul\":767:787   */\n      calldataload\n        /* \"#utility.yul\":758:787   */\n      swap1\n      pop\n        /* \"#utility.yul\":796:829   */\n      tag_118\n        /* \"#utility.yul\":823:828   */\n      dup2\n        /* \"#utility.yul\":796:829   */\n      tag_63\n      jump\t// in\n    tag_118:\n        /* \"#utility.yul\":696:835   */\n      swap3\n      swap2\n      pop\n      pop\n      jump\t// out\n        /* \"#utility.yul\":841:958   */\n    tag_65:\n        /* \"#utility.yul\":950:951   */\n      0x00\n        /* \"#utility.yul\":947:948   */\n      dup1\n        /* \"#utility.yul\":940:952   */\n      revert\n        /* \"#utility.yul\":964:1081   */\n    tag_66:\n        /* \"#utility.yul\":1073:1074   */\n      0x00\n        /* \"#utility.yul\":1070:1071   */\n      dup1\n        /* \"#utility.yul\":1063:1075   */\n      revert\n        /* \"#utility.yul\":1087:1189   */\n    tag_67:\n        /* \"#utility.yul\":1128:1134   */\n      0x00\n        /* \"#utility.yul\":1179:1181   */\n      0x1f\n        /* \"#utility.yul\":1175:1182   */\n      not\n        /* \"#utility.yul\":1170:1172   */\n      0x1f\n        /* \"#utility.yul\":1163:1168   */\n      dup4\n        /* \"#utility.yul\":1159:1173   */\n      add\n        /* \"#utility.yul\":1155:1183   */\n      and\n        /* \"#utility.yul\":1145:1183   */\n      swap1\n      pop\n        /* \"#utility.yul\":1087:1189   */\n      swap2\n      swap1\n      pop\n      jump\t// out\n        /* \"#utility.yul\":1195:1375   */\n    tag_68:\n        /* \"#utility.yul\":1243:1320   */\n      0x4e487b7100000000000000000000000000000000000000000000000000000000\n        /* \"#utility.yul\":1240:1241   */\n      0x00\n        /* \"#utility.yul\":1233:1321   */\n      mstore\n        /* \"#utility.yul\":1340:1344   */\n      0x41\n        /* \"#utility.yul\":1337:1338   */\n      0x04\n        /* \"#utility.yul\":1330:1345   */\n      mstore\n        /* \"#utility.yul\":1364:1368   */\n      0x24\n        /* \"#utility.yul\":1361:1362   */\n      0x00\n        /* \"#utility.yul\":1354:1369   */\n      revert\n        /* \"#utility.yul\":1381:1662   */\n    tag_69:\n        /* \"#utility.yul\":1464:1491   */\n      tag_124\n        /* \"#utility.yul\":1486:1490   */\n      dup3\n        /* \"#utility.yul\":1464:1491   */\n      tag_67\n      jump\t// in\n    tag_124:\n        /* \"#utility.yul\":1456:1462   */\n      dup2\n        /* \"#utility.yul\":1452:1492   */\n      add\n        /* \"#utility.yul\":1594:1600   */\n      dup2\n        /* \"#utility.yul\":1582:1592   */\n      dup2\n        /* \"#utility.yul\":1579:1601   */\n      lt\n        /* \"#utility.yul\":1558:1576   */\n      0xffffffffffffffff\n        /* \"#utility.yul\":1546:1556   */\n      dup3\n        /* \"#utility.yul\":1543:1577   */\n      gt\n        /* \"#utility.yul\":1540:1602   */\n      or\n        /* \"#utility.yul\":1537:1625   */\n      iszero\n      tag_125\n      jumpi\n        /* \"#utility.yul\":1605:1623   */\n      tag_126\n      tag_68\n      jump\t// in\n    tag_126:\n        /* \"#utility.yul\":1537:1625   */\n    tag_125:\n        /* \"#utility.yul\":1645:1655   */\n      dup1\n        /* \"#utility.yul\":1641:1643   */\n      0x40\n        /* \"#utility.yul\":1634:1656   */\n      mstore\n        /* \"#utility.yul\":1424:1662   */\n      pop\n        /* \"#utility.yul\":1381:1662   */\n      pop\n      pop\n      jump\t// out\n        /* \"#utility.yul\":1668:1797   */\n    tag_70:\n        /* \"#utility.yul\":1702:1708   */\n      0x00\n        /* \"#utility.yul\":1729:1749   */\n      tag_128\n      tag_58\n      jump\t// in\n    tag_128:\n        /* \"#utility.yul\":1719:1749   */\n      swap1\n      pop\n        /* \"#utility.yul\":1758:1791   */\n      tag_129\n        /* \"#utility.yul\":1786:1790   */\n      dup3\n        /* \"#utility.yul\":1778:1784   */\n      dup3\n        /* \"#utility.yul\":1758:1791   */\n      tag_69\n      jump\t// in\n    tag_129:\n        /* \"#utility.yul\":1668:1797   */\n      swap2\n      swap1\n      pop\n      jump\t// out\n        /* \"#utility.yul\":1803:2111   */\n    tag_71:\n        /* \"#utility.yul\":1865:1869   */\n      0x00\n        /* \"#utility.yul\":1955:1973   */\n      0xffffffffffffffff\n        /* \"#utility.yul\":1947:1953   */\n      dup3\n        /* \"#utility.yul\":1944:1974   */\n      gt\n        /* \"#utility.yul\":1941:1997   */\n      iszero\n      tag_131\n      jumpi\n        /* \"#utility.yul\":1977:1995   */\n      tag_132\n      tag_68\n      jump\t// in\n    tag_132:\n        /* \"#utility.yul\":1941:1997   */\n    tag_131:\n        /* \"#utility.yul\":2015:2044   */\n      tag_133\n        /* \"#utility.yul\":2037:2043   */\n      dup3\n        /* \"#utility.yul\":2015:2044   */\n      tag_67\n      jump\t// in\n    tag_133:\n        /* \"#utility.yul\":2007:2044   */\n      swap1\n      pop\n        /* \"#utility.yul\":2099:2103   */\n      0x20\n        /* \"#utility.yul\":2093:2097   */\n      dup2\n        /* \"#utility.yul\":2089:2104   */\n      add\n        /* \"#utility.yul\":2081:2104   */\n      swap1\n      pop\n        /* \"#utility.yul\":1803:2111   */\n      swap2\n      swap1\n      pop\n      jump\t// out\n        /* \"#utility.yul\":2117:2263   */\n    tag_72:\n        /* \"#utility.yul\":2214:2220   */\n      dup3\n        /* \"#utility.yul\":2209:2212   */\n      dup2\n        /* \"#utility.yul\":2204:2207   */\n      dup4\n        /* \"#utility.yul\":2191:2221   */\n      calldatacopy\n        /* \"#utility.yul\":2255:2256   */\n      0x00\n        /* \"#utility.yul\":2246:2252   */\n      dup4\n        /* \"#utility.yul\":2241:2244   */\n      dup4\n        /* \"#utility.yul\":2237:2253   */\n      add\n        /* \"#utility.yul\":2230:2257   */\n      mstore\n        /* \"#utility.yul\":2117:2263   */\n      pop\n      pop\n      pop\n      jump\t// out\n        /* \"#utility.yul\":2269:2694   */\n    tag_73:\n        /* \"#utility.yul\":2347:2352   */\n      0x00\n        /* \"#utility.yul\":2372:2438   */\n      tag_136\n        /* \"#utility.yul\":2388:2437   */\n      tag_137\n        /* \"#utility.yul\":2430:2436   */\n      dup5\n        /* \"#utility.yul\":2388:2437   */\n      tag_71\n      jump\t// in\n    tag_137:\n        /* \"#utility.yul\":2372:2438   */\n      tag_70\n      jump\t// in\n    tag_136:\n        /* \"#utility.yul\":2363:2438   */\n      swap1\n      pop\n        /* \"#utility.yul\":2461:2467   */\n      dup3\n        /* \"#utility.yul\":2454:2459   */\n      dup2\n        /* \"#utility.yul\":2447:2468   */\n      mstore\n        /* \"#utility.yul\":2499:2503   */\n      0x20\n        /* \"#utility.yul\":2492:2497   */\n      dup2\n        /* \"#utility.yul\":2488:2504   */\n      add\n        /* \"#utility.yul\":2537:2540   */\n      dup5\n        /* \"#utility.yul\":2528:2534   */\n      dup5\n        /* \"#utility.yul\":2523:2526   */\n      dup5\n        /* \"#utility.yul\":2519:2535   */\n      add\n        /* \"#utility.yul\":2516:2541   */\n      gt\n        /* \"#utility.yul\":2513:2625   */\n      iszero\n      tag_138\n      jumpi\n        /* \"#utility.yul\":2544:2623   */\n      tag_139\n      tag_66\n      jump\t// in\n    tag_139:\n        /* \"#utility.yul\":2513:2625   */\n    tag_138:\n        /* \"#utility.yul\":2634:2688   */\n      tag_140\n        /* \"#utility.yul\":2681:2687   */\n      dup5\n        /* \"#utility.yul\":2676:2679   */\n      dup3\n        /* \"#utility.yul\":2671:2674   */\n      dup6\n        /* \"#utility.yul\":2634:2688   */\n      tag_72\n      jump\t// in\n    tag_140:\n        /* \"#utility.yul\":2353:2694   */\n      pop\n        /* \"#utility.yul\":2269:2694   */\n      swap4\n      swap3\n      pop\n      pop\n      pop\n      jump\t// out\n        /* \"#utility.yul\":2714:3054   */\n    tag_74:\n        /* \"#utility.yul\":2770:2775   */\n      0x00\n        /* \"#utility.yul\":2819:2822   */\n      dup3\n        /* \"#utility.yul\":2812:2816   */\n      0x1f\n        /* \"#utility.yul\":2804:2810   */\n      dup4\n        /* \"#utility.yul\":2800:2817   */\n      add\n        /* \"#utility.yul\":2796:2823   */\n      slt\n        /* \"#utility.yul\":2786:2908   */\n      tag_142\n      jumpi\n        /* \"#utility.yul\":2827:2906   */\n      tag_143\n      tag_65\n      jump\t// in\n    tag_143:\n        /* \"#utility.yul\":2786:2908   */\n    tag_142:\n        /* \"#utility.yul\":2944:2950   */\n      dup2\n        /* \"#utility.yul\":2931:2951   */\n      calldataload\n        /* \"#utility.yul\":2969:3048   */\n      tag_144\n        /* \"#utility.yul\":3044:3047   */\n      dup5\n        /* \"#utility.yul\":3036:3042   */\n      dup3\n        /* \"#utility.yul\":3029:3033   */\n      0x20\n        /* \"#utility.yul\":3021:3027   */\n      dup7\n        /* \"#utility.yul\":3017:3034   */\n      add\n        /* \"#utility.yul\":2969:3048   */\n      tag_73\n      jump\t// in\n    tag_144:\n        /* \"#utility.yul\":2960:3048   */\n      swap2\n      pop\n        /* \"#utility.yul\":2776:3054   */\n      pop\n        /* \"#utility.yul\":2714:3054   */\n      swap3\n      swap2\n      pop\n      pop\n      jump\t// out\n        /* \"#utility.yul\":3060:4039   */\n    tag_9:\n        /* \"#utility.yul\":3157:3163   */\n      0x00\n        /* \"#utility.yul\":3165:3171   */\n      dup1\n        /* \"#utility.yul\":3173:3179   */\n      0x00\n        /* \"#utility.yul\":3222:3224   */\n      0x60\n        /* \"#utility.yul\":3210:3219   */\n      dup5\n        /* \"#utility.yul\":3201:3208   */\n      dup7\n        /* \"#utility.yul\":3197:3220   */\n      sub\n        /* \"#utility.yul\":3193:3225   */\n      slt\n        /* \"#utility.yul\":3190:3309   */\n      iszero\n      tag_146\n      jumpi\n        /* \"#utility.yul\":3228:3307   */\n      tag_147\n      tag_59\n      jump\t// in\n    tag_147:\n        /* \"#utility.yul\":3190:3309   */\n    tag_146:\n        /* \"#utility.yul\":3348:3349   */\n      0x00\n        /* \"#utility.yul\":3373:3426   */\n      tag_148\n        /* \"#utility.yul\":3418:3425   */\n      dup7\n        /* \"#utility.yul\":3409:3415   */\n      dup3\n        /* \"#utility.yul\":3398:3407   */\n      dup8\n        /* \"#utility.yul\":3394:3416   */\n      add\n        /* \"#utility.yul\":3373:3426   */\n      tag_64\n      jump\t// in\n    tag_148:\n        /* \"#utility.yul\":3363:3426   */\n      swap4\n      pop\n        /* \"#utility.yul\":3319:3436   */\n      pop\n        /* \"#utility.yul\":3503:3505   */\n      0x20\n        /* \"#utility.yul\":3492:3501   */\n      dup5\n        /* \"#utility.yul\":3488:3506   */\n      add\n        /* \"#utility.yul\":3475:3507   */\n      calldataload\n        /* \"#utility.yul\":3534:3552   */\n      0xffffffffffffffff\n        /* \"#utility.yul\":3526:3532   */\n      dup2\n        /* \"#utility.yul\":3523:3553   */\n      gt\n        /* \"#utility.yul\":3520:3637   */\n      iszero\n      tag_149\n      jumpi\n        /* \"#utility.yul\":3556:3635   */\n      tag_150\n      tag_60\n      jump\t// in\n    tag_150:\n        /* \"#utility.yul\":3520:3637   */\n    tag_149:\n        /* \"#utility.yul\":3661:3724   */\n      tag_151\n        /* \"#utility.yul\":3716:3723   */\n      dup7\n        /* \"#utility.yul\":3707:3713   */\n      dup3\n        /* \"#utility.yul\":3696:3705   */\n      dup8\n        /* \"#utility.yul\":3692:3714   */\n      add\n        /* \"#utility.yul\":3661:3724   */\n      tag_74\n      jump\t// in\n    tag_151:\n        /* \"#utility.yul\":3651:3724   */\n      swap3\n      pop\n        /* \"#utility.yul\":3446:3734   */\n      pop\n        /* \"#utility.yul\":3801:3803   */\n      0x40\n        /* \"#utility.yul\":3790:3799   */\n      dup5\n        /* \"#utility.yul\":3786:3804   */\n      add\n        /* \"#utility.yul\":3773:3805   */\n      calldataload\n        /* \"#utility.yul\":3832:3850   */\n      0xffffffffffffffff\n        /* \"#utility.yul\":3824:3830   */\n      dup2\n        /* \"#utility.yul\":3821:3851   */\n      gt\n        /* \"#utility.yul\":3818:3935   */\n      iszero\n      tag_152\n      jumpi\n        /* \"#utility.yul\":3854:3933   */\n      tag_153\n      tag_60\n      jump\t// in\n    tag_153:\n        /* \"#utility.yul\":3818:3935   */\n    tag_152:\n        /* \"#utility.yul\":3959:4022   */\n      tag_154\n        /* \"#utility.yul\":4014:4021   */\n      dup7\n        /* \"#utility.yul\":4005:4011   */\n      dup3\n        /* \"#utility.yul\":3994:4003   */\n      dup8\n        /* \"#utility.yul\":3990:4012   */\n      add\n        /* \"#utility.yul\":3959:4022   */\n      tag_74\n      jump\t// in\n    tag_154:\n        /* \"#utility.yul\":3949:4022   */\n      swap2\n      pop\n        /* \"#utility.yul\":3744:4032   */\n      pop\n        /* \"#utility.yul\":3060:4039   */\n      swap3\n      pop\n      swap3\n      pop\n      swap3\n      jump\t// out\n        /* \"#utility.yul\":4045:4879   */\n    tag_13:\n        /* \"#utility.yul\":4133:4139   */\n      0x00\n        /* \"#utility.yul\":4141:4147   */\n      dup1\n        /* \"#utility.yul\":4190:4192   */\n      0x40\n        /* \"#utility.yul\":4178:4187   */\n      dup4\n        /* \"#utility.yul\":4169:4176   */\n      dup6\n        /* \"#utility.yul\":4165:4188   */\n      sub\n        /* \"#utility.yul\":4161:4193   */\n      slt\n        /* \"#utility.yul\":4158:4277   */\n      iszero\n      tag_156\n      jumpi\n        /* \"#utility.yul\":4196:4275   */\n      tag_157\n      tag_59\n      jump\t// in\n    tag_157:\n        /* \"#utility.yul\":4158:4277   */\n    tag_156:\n        /* \"#utility.yul\":4344:4345   */\n      0x00\n        /* \"#utility.yul\":4333:4342   */\n      dup4\n        /* \"#utility.yul\":4329:4346   */\n      add\n        /* \"#utility.yul\":4316:4347   */\n      calldataload\n        /* \"#utility.yul\":4374:4392   */\n      0xffffffffffffffff\n        /* \"#utility.yul\":4366:4372   */\n      dup2\n        /* \"#utility.yul\":4363:4393   */\n      gt\n        /* \"#utility.yul\":4360:4477   */\n      iszero\n      tag_158\n      jumpi\n        /* \"#utility.yul\":4396:4475   */\n      tag_159\n      tag_60\n      jump\t// in\n    tag_159:\n        /* \"#utility.yul\":4360:4477   */\n    tag_158:\n        /* \"#utility.yul\":4501:4564   */\n      tag_160\n        /* \"#utility.yul\":4556:4563   */\n      dup6\n        /* \"#utility.yul\":4547:4553   */\n      dup3\n        /* \"#utility.yul\":4536:4545   */\n      dup7\n        /* \"#utility.yul\":4532:4554   */\n      add\n        /* \"#utility.yul\":4501:4564   */\n      tag_74\n      jump\t// in\n    tag_160:\n        /* \"#utility.yul\":4491:4564   */\n      swap3\n      pop\n        /* \"#utility.yul\":4287:4574   */\n      pop\n        /* \"#utility.yul\":4641:4643   */\n      0x20\n        /* \"#utility.yul\":4630:4639   */\n      dup4\n        /* \"#utility.yul\":4626:4644   */\n      add\n        /* \"#utility.yul\":4613:4645   */\n      calldataload\n        /* \"#utility.yul\":4672:4690   */\n      0xffffffffffffffff\n        /* \"#utility.yul\":4664:4670   */\n      dup2\n        /* \"#utility.yul\":4661:4691   */\n      gt\n        /* \"#utility.yul\":4658:4775   */\n      iszero\n      tag_161\n      jumpi\n        /* \"#utility.yul\":4694:4773   */\n      tag_162\n      tag_60\n      jump\t// in\n    tag_162:\n        /* \"#utility.yul\":4658:4775   */\n    tag_161:\n        /* \"#utility.yul\":4799:4862   */\n      tag_163\n        /* \"#utility.yul\":4854:4861   */\n      dup6\n        /* \"#utility.yul\":4845:4851   */\n      dup3\n        /* \"#utility.yul\":4834:4843   */\n      dup7\n        /* \"#utility.yul\":4830:4852   */\n      add\n        /* \"#utility.yul\":4799:4862   */\n      tag_74\n      jump\t// in\n    tag_163:\n        /* \"#utility.yul\":4789:4862   */\n      swap2\n      pop\n        /* \"#utility.yul\":4584:4872   */\n      pop\n        /* \"#utility.yul\":4045:4879   */\n      swap3\n      pop\n      swap3\n      swap1\n      pop\n      jump\t// out\n        /* \"#utility.yul\":4885:5214   */\n    tag_17:\n        /* \"#utility.yul\":4944:4950   */\n      0x00\n        /* \"#utility.yul\":4993:4995   */\n      0x20\n        /* \"#utility.yul\":4981:4990   */\n      dup3\n        /* \"#utility.yul\":4972:4979   */\n      dup5\n        /* \"#utility.yul\":4968:4991   */\n      sub\n        /* \"#utility.yul\":4964:4996   */\n      slt\n        /* \"#utility.yul\":4961:5080   */\n      iszero\n      tag_165\n      jumpi\n        /* \"#utility.yul\":4999:5078   */\n      tag_166\n      tag_59\n      jump\t// in\n    tag_166:\n        /* \"#utility.yul\":4961:5080   */\n    tag_165:\n        /* \"#utility.yul\":5119:5120   */\n      0x00\n        /* \"#utility.yul\":5144:5197   */\n      tag_167\n        /* \"#utility.yul\":5189:5196   */\n      dup5\n        /* \"#utility.yul\":5180:5186   */\n      dup3\n        /* \"#utility.yul\":5169:5178   */\n      dup6\n        /* \"#utility.yul\":5165:5187   */\n      add\n        /* \"#utility.yul\":5144:5197   */\n      tag_64\n      jump\t// in\n    tag_167:\n        /* \"#utility.yul\":5134:5197   */\n      swap2\n      pop\n        /* \"#utility.yul\":5090:5207   */\n      pop\n        /* \"#utility.yul\":4885:5214   */\n      swap3\n      swap2\n      pop\n      pop\n      jump\t// out\n        /* \"#utility.yul\":5220:5319   */\n    tag_75:\n        /* \"#utility.yul\":5272:5278   */\n      0x00\n        /* \"#utility.yul\":5306:5311   */\n      dup2\n        /* \"#utility.yul\":5300:5312   */\n      mload\n        /* \"#utility.yul\":5290:5312   */\n      swap1\n      pop\n        /* \"#utility.yul\":5220:5319   */\n      swap2\n      swap1\n      pop\n      jump\t// out\n        /* \"#utility.yul\":5325:5494   */\n    tag_76:\n        /* \"#utility.yul\":5409:5420   */\n      0x00\n        /* \"#utility.yul\":5443:5449   */\n      dup3\n        /* \"#utility.yul\":5438:5441   */\n      dup3\n        /* \"#utility.yul\":5431:5450   */\n      mstore\n        /* \"#utility.yul\":5483:5487   */\n      0x20\n        /* \"#utility.yul\":5478:5481   */\n      dup3\n        /* \"#utility.yul\":5474:5488   */\n      add\n        /* \"#utility.yul\":5459:5488   */\n      swap1\n      pop\n        /* \"#utility.yul\":5325:5494   */\n      swap3\n      swap2\n      pop\n      pop\n      jump\t// out\n        /* \"#utility.yul\":5500:5746   */\n    tag_77:\n        /* \"#utility.yul\":5581:5582   */\n      0x00\n        /* \"#utility.yul\":5591:5704   */\n    tag_171:\n        /* \"#utility.yul\":5605:5611   */\n      dup4\n        /* \"#utility.yul\":5602:5603   */\n      dup2\n        /* \"#utility.yul\":5599:5612   */\n      lt\n        /* \"#utility.yul\":5591:5704   */\n      iszero\n      tag_173\n      jumpi\n        /* \"#utility.yul\":5690:5691   */\n      dup1\n        /* \"#utility.yul\":5685:5688   */\n      dup3\n        /* \"#utility.yul\":5681:5692   */\n      add\n        /* \"#utility.yul\":5675:5693   */\n      mload\n        /* \"#utility.yul\":5671:5672   */\n      dup2\n        /* \"#utility.yul\":5666:5669   */\n      dup5\n        /* \"#utility.yul\":5662:5673   */\n      add\n        /* \"#utility.yul\":5655:5694   */\n      mstore\n        /* \"#utility.yul\":5627:5629   */\n      0x20\n        /* \"#utility.yul\":5624:5625   */\n      dup2\n        /* \"#utility.yul\":5620:5630   */\n      add\n        /* \"#utility.yul\":5615:5630   */\n      swap1\n      pop\n        /* \"#utility.yul\":5591:5704   */\n      jump(tag_171)\n    tag_173:\n        /* \"#utility.yul\":5738:5739   */\n      0x00\n        /* \"#utility.yul\":5729:5735   */\n      dup5\n        /* \"#utility.yul\":5724:5727   */\n      dup5\n        /* \"#utility.yul\":5720:5736   */\n      add\n        /* \"#utility.yul\":5713:5740   */\n      mstore\n        /* \"#utility.yul\":5562:5746   */\n      pop\n        /* \"#utility.yul\":5500:5746   */\n      pop\n      pop\n      pop\n      jump\t// out\n        /* \"#utility.yul\":5752:6129   */\n    tag_78:\n        /* \"#utility.yul\":5840:5843   */\n      0x00\n        /* \"#utility.yul\":5868:5907   */\n      tag_175\n        /* \"#utility.yul\":5901:5906   */\n      dup3\n        /* \"#utility.yul\":5868:5907   */\n      tag_75\n      jump\t// in\n    tag_175:\n        /* \"#utility.yul\":5923:5994   */\n      tag_176\n        /* \"#utility.yul\":5987:5993   */\n      dup2\n        /* \"#utility.yul\":5982:5985   */\n      dup6\n        /* \"#utility.yul\":5923:5994   */\n      tag_76\n      jump\t// in\n    tag_176:\n        /* \"#utility.yul\":5916:5994   */\n      swap4\n      pop\n        /* \"#utility.yul\":6003:6068   */\n      tag_177\n        /* \"#utility.yul\":6061:6067   */\n      dup2\n        /* \"#utility.yul\":6056:6059   */\n      dup6\n        /* \"#utility.yul\":6049:6053   */\n      0x20\n        /* \"#utility.yul\":6042:6047   */\n      dup7\n        /* \"#utility.yul\":6038:6054   */\n      add\n        /* \"#utility.yul\":6003:6068   */\n      tag_77\n      jump\t// in\n    tag_177:\n        /* \"#utility.yul\":6093:6122   */\n      tag_178\n        /* \"#utility.yul\":6115:6121   */\n      dup2\n        /* \"#utility.yul\":6093:6122   */\n      tag_67\n      jump\t// in\n    tag_178:\n        /* \"#utility.yul\":6088:6091   */\n      dup5\n        /* \"#utility.yul\":6084:6123   */\n      add\n        /* \"#utility.yul\":6077:6123   */\n      swap2\n      pop\n        /* \"#utility.yul\":5844:6129   */\n      pop\n        /* \"#utility.yul\":5752:6129   */\n      swap3\n      swap2\n      pop\n      pop\n      jump\t// out\n        /* \"#utility.yul\":6135:6649   */\n    tag_20:\n        /* \"#utility.yul\":6296:6300   */\n      0x00\n        /* \"#utility.yul\":6334:6336   */\n      0x40\n        /* \"#utility.yul\":6323:6332   */\n      dup3\n        /* \"#utility.yul\":6319:6337   */\n      add\n        /* \"#utility.yul\":6311:6337   */\n      swap1\n      pop\n        /* \"#utility.yul\":6383:6392   */\n      dup2\n        /* \"#utility.yul\":6377:6381   */\n      dup2\n        /* \"#utility.yul\":6373:6393   */\n      sub\n        /* \"#utility.yul\":6369:6370   */\n      0x00\n        /* \"#utility.yul\":6358:6367   */\n      dup4\n        /* \"#utility.yul\":6354:6371   */\n      add\n        /* \"#utility.yul\":6347:6394   */\n      mstore\n        /* \"#utility.yul\":6411:6489   */\n      tag_180\n        /* \"#utility.yul\":6484:6488   */\n      dup2\n        /* \"#utility.yul\":6475:6481   */\n      dup6\n        /* \"#utility.yul\":6411:6489   */\n      tag_78\n      jump\t// in\n    tag_180:\n        /* \"#utility.yul\":6403:6489   */\n      swap1\n      pop\n        /* \"#utility.yul\":6536:6545   */\n      dup2\n        /* \"#utility.yul\":6530:6534   */\n      dup2\n        /* \"#utility.yul\":6526:6546   */\n      sub\n        /* \"#utility.yul\":6521:6523   */\n      0x20\n        /* \"#utility.yul\":6510:6519   */\n      dup4\n        /* \"#utility.yul\":6506:6524   */\n      add\n        /* \"#utility.yul\":6499:6547   */\n      mstore\n        /* \"#utility.yul\":6564:6642   */\n      tag_181\n        /* \"#utility.yul\":6637:6641   */\n      dup2\n        /* \"#utility.yul\":6628:6634   */\n      dup5\n        /* \"#utility.yul\":6564:6642   */\n      tag_78\n      jump\t// in\n    tag_181:\n        /* \"#utility.yul\":6556:6642   */\n      swap1\n      pop\n        /* \"#utility.yul\":6135:6649   */\n      swap4\n      swap3\n      pop\n      pop\n      pop\n      jump\t// out\n        /* \"#utility.yul\":6655:6769   */\n    tag_79:\n        /* \"#utility.yul\":6722:6728   */\n      0x00\n        /* \"#utility.yul\":6756:6761   */\n      dup2\n        /* \"#utility.yul\":6750:6762   */\n      mload\n        /* \"#utility.yul\":6740:6762   */\n      swap1\n      pop\n        /* \"#utility.yul\":6655:6769   */\n      swap2\n      swap1\n      pop\n      jump\t// out\n        /* \"#utility.yul\":6775:6959   */\n    tag_80:\n        /* \"#utility.yul\":6874:6885   */\n      0x00\n        /* \"#utility.yul\":6908:6914   */\n      dup3\n        /* \"#utility.yul\":6903:6906   */\n      dup3\n        /* \"#utility.yul\":6896:6915   */\n      mstore\n        /* \"#utility.yul\":6948:6952   */\n      0x20\n        /* \"#utility.yul\":6943:6946   */\n      dup3\n        /* \"#utility.yul\":6939:6953   */\n      add\n        /* \"#utility.yul\":6924:6953   */\n      swap1\n      pop\n        /* \"#utility.yul\":6775:6959   */\n      swap3\n      swap2\n      pop\n      pop\n      jump\t// out\n        /* \"#utility.yul\":6965:7097   */\n    tag_81:\n        /* \"#utility.yul\":7032:7036   */\n      0x00\n        /* \"#utility.yul\":7055:7058   */\n      dup2\n        /* \"#utility.yul\":7047:7058   */\n      swap1\n      pop\n        /* \"#utility.yul\":7085:7089   */\n      0x20\n        /* \"#utility.yul\":7080:7083   */\n      dup3\n        /* \"#utility.yul\":7076:7090   */\n      add\n        /* \"#utility.yul\":7068:7090   */\n      swap1\n      pop\n        /* \"#utility.yul\":6965:7097   */\n      swap2\n      swap1\n      pop\n      jump\t// out\n        /* \"#utility.yul\":7103:7211   */\n    tag_82:\n        /* \"#utility.yul\":7180:7204   */\n      tag_186\n        /* \"#utility.yul\":7198:7203   */\n      dup2\n        /* \"#utility.yul\":7180:7204   */\n      tag_62\n      jump\t// in\n    tag_186:\n        /* \"#utility.yul\":7175:7178   */\n      dup3\n        /* \"#utility.yul\":7168:7205   */\n      mstore\n        /* \"#utility.yul\":7103:7211   */\n      pop\n      pop\n      jump\t// out\n        /* \"#utility.yul\":7217:7396   */\n    tag_83:\n        /* \"#utility.yul\":7286:7296   */\n      0x00\n        /* \"#utility.yul\":7307:7353   */\n      tag_188\n        /* \"#utility.yul\":7349:7352   */\n      dup4\n        /* \"#utility.yul\":7341:7347   */\n      dup4\n        /* \"#utility.yul\":7307:7353   */\n      tag_82\n      jump\t// in\n    tag_188:\n        /* \"#utility.yul\":7385:7389   */\n      0x20\n        /* \"#utility.yul\":7380:7383   */\n      dup4\n        /* \"#utility.yul\":7376:7390   */\n      add\n        /* \"#utility.yul\":7362:7390   */\n      swap1\n      pop\n        /* \"#utility.yul\":7217:7396   */\n      swap3\n      swap2\n      pop\n      pop\n      jump\t// out\n        /* \"#utility.yul\":7402:7515   */\n    tag_84:\n        /* \"#utility.yul\":7472:7476   */\n      0x00\n        /* \"#utility.yul\":7504:7508   */\n      0x20\n        /* \"#utility.yul\":7499:7502   */\n      dup3\n        /* \"#utility.yul\":7495:7509   */\n      add\n        /* \"#utility.yul\":7487:7509   */\n      swap1\n      pop\n        /* \"#utility.yul\":7402:7515   */\n      swap2\n      swap1\n      pop\n      jump\t// out\n        /* \"#utility.yul\":7551:8283   */\n    tag_85:\n        /* \"#utility.yul\":7670:7673   */\n      0x00\n        /* \"#utility.yul\":7699:7753   */\n      tag_191\n        /* \"#utility.yul\":7747:7752   */\n      dup3\n        /* \"#utility.yul\":7699:7753   */\n      tag_79\n      jump\t// in\n    tag_191:\n        /* \"#utility.yul\":7769:7855   */\n      tag_192\n        /* \"#utility.yul\":7848:7854   */\n      dup2\n        /* \"#utility.yul\":7843:7846   */\n      dup6\n        /* \"#utility.yul\":7769:7855   */\n      tag_80\n      jump\t// in\n    tag_192:\n        /* \"#utility.yul\":7762:7855   */\n      swap4\n      pop\n        /* \"#utility.yul\":7879:7935   */\n      tag_193\n        /* \"#utility.yul\":7929:7934   */\n      dup4\n        /* \"#utility.yul\":7879:7935   */\n      tag_81\n      jump\t// in\n    tag_193:\n        /* \"#utility.yul\":7958:7965   */\n      dup1\n        /* \"#utility.yul\":7989:7990   */\n      0x00\n        /* \"#utility.yul\":7974:8258   */\n    tag_194:\n        /* \"#utility.yul\":7999:8005   */\n      dup4\n        /* \"#utility.yul\":7996:7997   */\n      dup2\n        /* \"#utility.yul\":7993:8006   */\n      lt\n        /* \"#utility.yul\":7974:8258   */\n      iszero\n      tag_196\n      jumpi\n        /* \"#utility.yul\":8075:8081   */\n      dup2\n        /* \"#utility.yul\":8069:8082   */\n      mload\n        /* \"#utility.yul\":8102:8165   */\n      tag_197\n        /* \"#utility.yul\":8161:8164   */\n      dup9\n        /* \"#utility.yul\":8146:8159   */\n      dup3\n        /* \"#utility.yul\":8102:8165   */\n      tag_83\n      jump\t// in\n    tag_197:\n        /* \"#utility.yul\":8095:8165   */\n      swap8\n      pop\n        /* \"#utility.yul\":8188:8248   */\n      tag_198\n        /* \"#utility.yul\":8241:8247   */\n      dup4\n        /* \"#utility.yul\":8188:8248   */\n      tag_84\n      jump\t// in\n    tag_198:\n        /* \"#utility.yul\":8178:8248   */\n      swap3\n      pop\n        /* \"#utility.yul\":8034:8258   */\n      pop\n        /* \"#utility.yul\":8021:8022   */\n      0x01\n        /* \"#utility.yul\":8018:8019   */\n      dup2\n        /* \"#utility.yul\":8014:8023   */\n      add\n        /* \"#utility.yul\":8009:8023   */\n      swap1\n      pop\n        /* \"#utility.yul\":7974:8258   */\n      jump(tag_194)\n    tag_196:\n        /* \"#utility.yul\":7978:7992   */\n      pop\n        /* \"#utility.yul\":8274:8277   */\n      dup6\n        /* \"#utility.yul\":8267:8277   */\n      swap4\n      pop\n        /* \"#utility.yul\":7675:8283   */\n      pop\n      pop\n      pop\n        /* \"#utility.yul\":7551:8283   */\n      swap3\n      swap2\n      pop\n      pop\n      jump\t// out\n        /* \"#utility.yul\":8289:8662   */\n    tag_24:\n        /* \"#utility.yul\":8432:8436   */\n      0x00\n        /* \"#utility.yul\":8470:8472   */\n      0x20\n        /* \"#utility.yul\":8459:8468   */\n      dup3\n        /* \"#utility.yul\":8455:8473   */\n      add\n        /* \"#utility.yul\":8447:8473   */\n      swap1\n      pop\n        /* \"#utility.yul\":8519:8528   */\n      dup2\n        /* \"#utility.yul\":8513:8517   */\n      dup2\n        /* \"#utility.yul\":8509:8529   */\n      sub\n        /* \"#utility.yul\":8505:8506   */\n      0x00\n        /* \"#utility.yul\":8494:8503   */\n      dup4\n        /* \"#utility.yul\":8490:8507   */\n      add\n        /* \"#utility.yul\":8483:8530   */\n      mstore\n        /* \"#utility.yul\":8547:8655   */\n      tag_200\n        /* \"#utility.yul\":8650:8654   */\n      dup2\n        /* \"#utility.yul\":8641:8647   */\n      dup5\n        /* \"#utility.yul\":8547:8655   */\n      tag_85\n      jump\t// in\n    tag_200:\n        /* \"#utility.yul\":8539:8655   */\n      swap1\n      pop\n        /* \"#utility.yul\":8289:8662   */\n      swap3\n      swap2\n      pop\n      pop\n      jump\t// out\n        /* \"#utility.yul\":8668:8841   */\n    tag_86:\n        /* \"#utility.yul\":8808:8833   */\n      0x4b756c6c616e696369206b617969746c6920646567696c000000000000000000\n        /* \"#utility.yul\":8804:8805   */\n      0x00\n        /* \"#utility.yul\":8796:8802   */\n      dup3\n        /* \"#utility.yul\":8792:8806   */\n      add\n        /* \"#utility.yul\":8785:8834   */\n      mstore\n        /* \"#utility.yul\":8668:8841   */\n      pop\n      jump\t// out\n        /* \"#utility.yul\":8847:9213   */\n    tag_87:\n        /* \"#utility.yul\":8989:8992   */\n      0x00\n        /* \"#utility.yul\":9010:9077   */\n      tag_203\n        /* \"#utility.yul\":9074:9076   */\n      0x17\n        /* \"#utility.yul\":9069:9072   */\n      dup4\n        /* \"#utility.yul\":9010:9077   */\n      tag_76\n      jump\t// in\n    tag_203:\n        /* \"#utility.yul\":9003:9077   */\n      swap2\n      pop\n        /* \"#utility.yul\":9086:9179   */\n      tag_204\n        /* \"#utility.yul\":9175:9178   */\n      dup3\n        /* \"#utility.yul\":9086:9179   */\n      tag_86\n      jump\t// in\n    tag_204:\n        /* \"#utility.yul\":9204:9206   */\n      0x20\n        /* \"#utility.yul\":9199:9202   */\n      dup3\n        /* \"#utility.yul\":9195:9207   */\n      add\n        /* \"#utility.yul\":9188:9207   */\n      swap1\n      pop\n        /* \"#utility.yul\":8847:9213   */\n      swap2\n      swap1\n      pop\n      jump\t// out\n        /* \"#utility.yul\":9219:9638   */\n    tag_28:\n        /* \"#utility.yul\":9385:9389   */\n      0x00\n        /* \"#utility.yul\":9423:9425   */\n      0x20\n        /* \"#utility.yul\":9412:9421   */\n      dup3\n        /* \"#utility.yul\":9408:9426   */\n      add\n        /* \"#utility.yul\":9400:9426   */\n      swap1\n      pop\n        /* \"#utility.yul\":9472:9481   */\n      dup2\n        /* \"#utility.yul\":9466:9470   */\n      dup2\n        /* \"#utility.yul\":9462:9482   */\n      sub\n        /* \"#utility.yul\":9458:9459   */\n      0x00\n        /* \"#utility.yul\":9447:9456   */\n      dup4\n        /* \"#utility.yul\":9443:9460   */\n      add\n        /* \"#utility.yul\":9436:9483   */\n      mstore\n        /* \"#utility.yul\":9500:9631   */\n      tag_206\n        /* \"#utility.yul\":9626:9630   */\n      dup2\n        /* \"#utility.yul\":9500:9631   */\n      tag_87\n      jump\t// in\n    tag_206:\n        /* \"#utility.yul\":9492:9631   */\n      swap1\n      pop\n        /* \"#utility.yul\":9219:9638   */\n      swap2\n      swap1\n      pop\n      jump\t// out\n        /* \"#utility.yul\":9644:9824   */\n    tag_88:\n        /* \"#utility.yul\":9692:9769   */\n      0x4e487b7100000000000000000000000000000000000000000000000000000000\n        /* \"#utility.yul\":9689:9690   */\n      0x00\n        /* \"#utility.yul\":9682:9770   */\n      mstore\n        /* \"#utility.yul\":9789:9793   */\n      0x22\n        /* \"#utility.yul\":9786:9787   */\n      0x04\n        /* \"#utility.yul\":9779:9794   */\n      mstore\n        /* \"#utility.yul\":9813:9817   */\n      0x24\n        /* \"#utility.yul\":9810:9811   */\n      0x00\n        /* \"#utility.yul\":9803:9818   */\n      revert\n        /* \"#utility.yul\":9830:10150   */\n    tag_45:\n        /* \"#utility.yul\":9874:9880   */\n      0x00\n        /* \"#utility.yul\":9911:9912   */\n      0x02\n        /* \"#utility.yul\":9905:9909   */\n      dup3\n        /* \"#utility.yul\":9901:9913   */\n      div\n        /* \"#utility.yul\":9891:9913   */\n      swap1\n      pop\n        /* \"#utility.yul\":9958:9959   */\n      0x01\n        /* \"#utility.yul\":9952:9956   */\n      dup3\n        /* \"#utility.yul\":9948:9960   */\n      and\n        /* \"#utility.yul\":9979:9997   */\n      dup1\n        /* \"#utility.yul\":9969:10050   */\n      tag_209\n      jumpi\n        /* \"#utility.yul\":10035:10039   */\n      0x7f\n        /* \"#utility.yul\":10027:10033   */\n      dup3\n        /* \"#utility.yul\":10023:10040   */\n      and\n        /* \"#utility.yul\":10013:10040   */\n      swap2\n      pop\n        /* \"#utility.yul\":9969:10050   */\n    tag_209:\n        /* \"#utility.yul\":10097:10099   */\n      0x20\n        /* \"#utility.yul\":10089:10095   */\n      dup3\n        /* \"#utility.yul\":10086:10100   */\n      lt\n        /* \"#utility.yul\":10066:10084   */\n      dup2\n        /* \"#utility.yul\":10063:10101   */\n      sub\n        /* \"#utility.yul\":10060:10144   */\n      tag_210\n      jumpi\n        /* \"#utility.yul\":10116:10134   */\n      tag_211\n      tag_88\n      jump\t// in\n    tag_211:\n        /* \"#utility.yul\":10060:10144   */\n    tag_210:\n        /* \"#utility.yul\":9881:10150   */\n      pop\n        /* \"#utility.yul\":9830:10150   */\n      swap2\n      swap1\n      pop\n      jump\t// out\n        /* \"#utility.yul\":10156:10297   */\n    tag_89:\n        /* \"#utility.yul\":10205:10209   */\n      0x00\n        /* \"#utility.yul\":10228:10231   */\n      dup2\n        /* \"#utility.yul\":10220:10231   */\n      swap1\n      pop\n        /* \"#utility.yul\":10251:10254   */\n      dup2\n        /* \"#utility.yul\":10248:10249   */\n      0x00\n        /* \"#utility.yul\":10241:10255   */\n      mstore\n        /* \"#utility.yul\":10285:10289   */\n      0x20\n        /* \"#utility.yul\":10282:10283   */\n      0x00\n        /* \"#utility.yul\":10272:10290   */\n      keccak256\n        /* \"#utility.yul\":10264:10290   */\n      swap1\n      pop\n        /* \"#utility.yul\":10156:10297   */\n      swap2\n      swap1\n      pop\n      jump\t// out\n        /* \"#utility.yul\":10303:10396   */\n    tag_90:\n        /* \"#utility.yul\":10340:10346   */\n      0x00\n        /* \"#utility.yul\":10387:10389   */\n      0x20\n        /* \"#utility.yul\":10382:10384   */\n      0x1f\n        /* \"#utility.yul\":10375:10380   */\n      dup4\n        /* \"#utility.yul\":10371:10385   */\n      add\n        /* \"#utility.yul\":10367:10390   */\n      div\n        /* \"#utility.yul\":10357:10390   */\n      swap1\n      pop\n        /* \"#utility.yul\":10303:10396   */\n      swap2\n      swap1\n      pop\n      jump\t// out\n        /* \"#utility.yul\":10402:10509   */\n    tag_91:\n        /* \"#utility.yul\":10446:10454   */\n      0x00\n        /* \"#utility.yul\":10496:10501   */\n      dup3\n        /* \"#utility.yul\":10490:10494   */\n      dup3\n        /* \"#utility.yul\":10486:10502   */\n      shl\n        /* \"#utility.yul\":10465:10502   */\n      swap1\n      pop\n        /* \"#utility.yul\":10402:10509   */\n      swap3\n      swap2\n      pop\n      pop\n      jump\t// out\n        /* \"#utility.yul\":10515:10908   */\n    tag_92:\n        /* \"#utility.yul\":10584:10590   */\n      0x00\n        /* \"#utility.yul\":10634:10635   */\n      0x08\n        /* \"#utility.yul\":10622:10632   */\n      dup4\n        /* \"#utility.yul\":10618:10636   */\n      mul\n        /* \"#utility.yul\":10657:10754   */\n      tag_216\n        /* \"#utility.yul\":10687:10753   */\n      0xffffffffffffffffffffffffffffffffffffffffffffffffffffffffffffffff\n        /* \"#utility.yul\":10676:10685   */\n      dup3\n        /* \"#utility.yul\":10657:10754   */\n      tag_91\n      jump\t// in\n    tag_216:\n        /* \"#utility.yul\":10775:10814   */\n      tag_217\n        /* \"#utility.yul\":10805:10813   */\n      dup7\n        /* \"#utility.yul\":10794:10803   */\n      dup4\n        /* \"#utility.yul\":10775:10814   */\n      tag_91\n      jump\t// in\n    tag_217:\n        /* \"#utility.yul\":10763:10814   */\n      swap6\n      pop\n        /* \"#utility.yul\":10847:10851   */\n      dup1\n        /* \"#utility.yul\":10843:10852   */\n      not\n        /* \"#utility.yul\":10836:10841   */\n      dup5\n        /* \"#utility.yul\":10832:10853   */\n      and\n        /* \"#utility.yul\":10823:10853   */\n      swap4\n      pop\n        /* \"#utility.yul\":10896:10900   */\n      dup1\n        /* \"#utility.yul\":10886:10894   */\n      dup7\n        /* \"#utility.yul\":10882:10901   */\n      and\n        /* \"#utility.yul\":10875:10880   */\n      dup5\n        /* \"#utility.yul\":10872:10902   */\n      or\n        /* \"#utility.yul\":10862:10902   */\n      swap3\n      pop\n        /* \"#utility.yul\":10591:10908   */\n      pop\n      pop\n        /* \"#utility.yul\":10515:10908   */\n      swap4\n      swap3\n      pop\n      pop\n      pop\n      jump\t// out\n        /* \"#utility.yul\":10914:10991   */\n    tag_93:\n        /* \"#utility.yul\":10951:10958   */\n      0x00\n        /* \"#utility.yul\":10980:10985   */\n      dup2\n        /* \"#utility.yul\":10969:10985   */\n      swap1\n      pop\n        /* \"#utility.yul\":10914:10991   */\n      swap2\n      swap1\n      pop\n      jump\t// out\n        /* \"#utility.yul\":10997:11057   */\n    tag_94:\n        /* \"#utility.yul\":11025:11028   */\n      0x00\n        /* \"#utility.yul\":11046:11051   */\n      dup2\n        /* \"#utility.yul\":11039:11051   */\n      swap1\n      pop\n        /* \"#utility.yul\":10997:11057   */\n      swap2\n      swap1\n      pop\n      jump\t// out\n        /* \"#utility.yul\":11063:11205   */\n    tag_95:\n        /* \"#utility.yul\":11113:11122   */\n      0x00\n        /* \"#utility.yul\":11146:11199   */\n      tag_221\n        /* \"#utility.yul\":11164:11198   */\n      tag_222\n        /* \"#utility.yul\":11173:11197   */\n      tag_223\n        /* \"#utility.yul\":11191:11196   */\n      dup5\n        /* \"#utility.yul\":11173:11197   */\n      tag_93\n      jump\t// in\n    tag_223:\n        /* \"#utility.yul\":11164:11198   */\n      tag_94\n      jump\t// in\n    tag_222:\n        /* \"#utility.yul\":11146:11199   */\n      tag_93\n      jump\t// in\n    tag_221:\n        /* \"#utility.yul\":11133:11199   */\n      swap1\n      pop\n        /* \"#utility.yul\":11063:11205   */\n      swap2\n      swap1\n      pop\n      jump\t// out\n        /* \"#utility.yul\":11211:11286   */\n    tag_96:\n        /* \"#utility.yul\":11254:11257   */\n      0x00\n        /* \"#utility.yul\":11275:11280   */\n      dup2\n        /* \"#utility.yul\":11268:11280   */\n      swap1\n      pop\n        /* \"#utility.yul\":11211:11286   */\n      swap2\n      swap1\n      pop\n      jump\t// out\n        /* \"#utility.yul\":11292:11561   */\n    tag_97:\n        /* \"#utility.yul\":11402:11441   */\n      tag_226\n        /* \"#utility.yul\":11433:11440   */\n      dup4\n        /* \"#utility.yul\":11402:11441   */\n      tag_95\n      jump\t// in\n    tag_226:\n        /* \"#utility.yul\":11463:11554   */\n      tag_227\n        /* \"#utility.yul\":11512:11553   */\n      tag_228\n        /* \"#utility.yul\":11536:11552   */\n      dup3\n        /* \"#utility.yul\":11512:11553   */\n      tag_96\n      jump\t// in\n    tag_228:\n        /* \"#utility.yul\":11504:11510   */\n      dup5\n        /* \"#utility.yul\":11497:11501   */\n      dup5\n        /* \"#utility.yul\":11491:11502   */\n      sload\n        /* \"#utility.yul\":11463:11554   */\n      tag_92\n      jump\t// in\n    tag_227:\n        /* \"#utility.yul\":11457:11461   */\n      dup3\n        /* \"#utility.yul\":11450:11555   */\n      sstore\n        /* \"#utility.yul\":11368:11561   */\n      pop\n        /* \"#utility.yul\":11292:11561   */\n      pop\n      pop\n      pop\n      jump\t// out\n        /* \"#utility.yul\":11567:11640   */\n    tag_98:\n        /* \"#utility.yul\":11612:11615   */\n      0x00\n        /* \"#utility.yul\":11567:11640   */\n      swap1\n      jump\t// out\n        /* \"#utility.yul\":11646:11835   */\n    tag_99:\n        /* \"#utility.yul\":11723:11755   */\n      tag_231\n      tag_98\n      jump\t// in\n    tag_231:\n        /* \"#utility.yul\":11764:11829   */\n      tag_232\n        /* \"#utility.yul\":11822:11828   */\n      dup2\n        /* \"#utility.yul\":11814:11820   */\n      dup5\n        /* \"#utility.yul\":11808:11812   */\n      dup5\n        /* \"#utility.yul\":11764:11829   */\n      tag_97\n      jump\t// in\n    tag_232:\n        /* \"#utility.yul\":11699:11835   */\n      pop\n        /* \"#utility.yul\":11646:11835   */\n      pop\n      pop\n      jump\t// out\n        /* \"#utility.yul\":11841:12027   */\n    tag_100:\n        /* \"#utility.yul\":11901:12021   */\n    tag_234:\n        /* \"#utility.yul\":11918:11921   */\n      dup2\n        /* \"#utility.yul\":11911:11916   */\n      dup2\n        /* \"#utility.yul\":11908:11922   */\n      lt\n        /* \"#utility.yul\":11901:12021   */\n      iszero\n      tag_236\n      jumpi\n        /* \"#utility.yul\":11972:12011   */\n      tag_237\n        /* \"#utility.yul\":12009:12010   */\n      0x00\n        /* \"#utility.yul\":12002:12007   */\n      dup3\n        /* \"#utility.yul\":11972:12011   */\n      tag_99\n      jump\t// in\n    tag_237:\n        /* \"#utility.yul\":11945:11946   */\n      0x01\n        /* \"#utility.yul\":11938:11943   */\n      dup2\n        /* \"#utility.yul\":11934:11947   */\n      add\n        /* \"#utility.yul\":11925:11947   */\n      swap1\n      pop\n        /* \"#utility.yul\":11901:12021   */\n      jump(tag_234)\n    tag_236:\n        /* \"#utility.yul\":11841:12027   */\n      pop\n      pop\n      jump\t// out\n        /* \"#utility.yul\":12033:12576   */\n    tag_101:\n        /* \"#utility.yul\":12134:12136   */\n      0x1f\n        /* \"#utility.yul\":12129:12132   */\n      dup3\n        /* \"#utility.yul\":12126:12137   */\n      gt\n        /* \"#utility.yul\":12123:12569   */\n      iszero\n      tag_239\n      jumpi\n        /* \"#utility.yul\":12168:12206   */\n      tag_240\n        /* \"#utility.yul\":12200:12205   */\n      dup2\n        /* \"#utility.yul\":12168:12206   */\n      tag_89\n      jump\t// in\n    tag_240:\n        /* \"#utility.yul\":12252:12281   */\n      tag_241\n        /* \"#utility.yul\":12270:12280   */\n      dup5\n        /* \"#utility.yul\":12252:12281   */\n      tag_90\n      jump\t// in\n    tag_241:\n        /* \"#utility.yul\":12242:12250   */\n      dup2\n        /* \"#utility.yul\":12238:12282   */\n      add\n        /* \"#utility.yul\":12435:12437   */\n      0x20\n        /* \"#utility.yul\":12423:12433   */\n      dup6\n        /* \"#utility.yul\":12420:12438   */\n      lt\n        /* \"#utility.yul\":12417:12466   */\n      iszero\n      tag_242\n      jumpi\n        /* \"#utility.yul\":12456:12464   */\n      dup2\n        /* \"#utility.yul\":12441:12464   */\n      swap1\n      pop\n        /* \"#utility.yul\":12417:12466   */\n    tag_242:\n        /* \"#utility.yul\":12479:12559   */\n      tag_243\n        /* \"#utility.yul\":12535:12557   */\n      tag_244\n        /* \"#utility.yul\":12553:12556   */\n      dup6\n        /* \"#utility.yul\":12535:12557   */\n      tag_90\n      jump\t// in\n    tag_244:\n        /* \"#utility.yul\":12525:12533   */\n      dup4\n        /* \"#utility.yul\":12521:12558   */\n      add\n        /* \"#utility.yul\":12508:12519   */\n      dup3\n        /* \"#utility.yul\":12479:12559   */\n      tag_100\n      jump\t// in\n    tag_243:\n        /* \"#utility.yul\":12138:12569   */\n      pop\n      pop\n        /* \"#utility.yul\":12123:12569   */\n    tag_239:\n        /* \"#utility.yul\":12033:12576   */\n      pop\n      pop\n      pop\n      jump\t// out\n        /* \"#utility.yul\":12582:12699   */\n    tag_102:\n        /* \"#utility.yul\":12636:12644   */\n      0x00\n        /* \"#utility.yul\":12686:12691   */\n      dup3\n        /* \"#utility.yul\":12680:12684   */\n      dup3\n        /* \"#utility.yul\":12676:12692   */\n      shr\n        /* \"#utility.yul\":12655:12692   */\n      swap1\n      pop\n        /* \"#utility.yul\":12582:12699   */\n      swap3\n      swap2\n      pop\n      pop\n      jump\t// out\n        /* \"#utility.yul\":12705:12874   */\n    tag_103:\n        /* \"#utility.yul\":12749:12755   */\n      0x00\n        /* \"#utility.yul\":12782:12833   */\n      tag_247\n        /* \"#utility.yul\":12830:12831   */\n      0x00\n        /* \"#utility.yul\":12826:12832   */\n      not\n        /* \"#utility.yul\":12818:12823   */\n      dup5\n        /* \"#utility.yul\":12815:12816   */\n      0x08\n        /* \"#utility.yul\":12811:12824   */\n      mul\n        /* \"#utility.yul\":12782:12833   */\n      tag_102\n      jump\t// in\n    tag_247:\n        /* \"#utility.yul\":12778:12834   */\n      not\n        /* \"#utility.yul\":12863:12867   */\n      dup1\n        /* \"#utility.yul\":12857:12861   */\n      dup4\n        /* \"#utility.yul\":12853:12868   */\n      and\n        /* \"#utility.yul\":12843:12868   */\n      swap2\n      pop\n        /* \"#utility.yul\":12756:12874   */\n      pop\n        /* \"#utility.yul\":12705:12874   */\n      swap3\n      swap2\n      pop\n      pop\n      jump\t// out\n        /* \"#utility.yul\":12879:13174   */\n    tag_104:\n        /* \"#utility.yul\":12955:12959   */\n      0x00\n        /* \"#utility.yul\":13101:13130   */\n      tag_249\n        /* \"#utility.yul\":13126:13129   */\n      dup4\n        /* \"#utility.yul\":13120:13124   */\n      dup4\n        /* \"#utility.yul\":13101:13130   */\n      tag_103\n      jump\t// in\n    tag_249:\n        /* \"#utility.yul\":13093:13130   */\n      swap2\n      pop\n        /* \"#utility.yul\":13163:13166   */\n      dup3\n        /* \"#utility.yul\":13160:13161   */\n      0x02\n        /* \"#utility.yul\":13156:13167   */\n      mul\n        /* \"#utility.yul\":13150:13154   */\n      dup3\n        /* \"#utility.yul\":13147:13168   */\n      or\n        /* \"#utility.yul\":13139:13168   */\n      swap1\n      pop\n        /* \"#utility.yul\":12879:13174   */\n      swap3\n      swap2\n      pop\n      pop\n      jump\t// out\n        /* \"#utility.yul\":13179:14574   */\n    tag_30:\n        /* \"#utility.yul\":13296:13333   */\n      tag_251\n        /* \"#utility.yul\":13329:13332   */\n      dup3\n        /* \"#utility.yul\":13296:13333   */\n      tag_75\n      jump\t// in\n    tag_251:\n        /* \"#utility.yul\":13398:13416   */\n      0xffffffffffffffff\n        /* \"#utility.yul\":13390:13396   */\n      dup2\n        /* \"#utility.yul\":13387:13417   */\n      gt\n        /* \"#utility.yul\":13384:13440   */\n      iszero\n      tag_252\n      jumpi\n        /* \"#utility.yul\":13420:13438   */\n      tag_253\n      tag_68\n      jump\t// in\n    tag_253:\n        /* \"#utility.yul\":13384:13440   */\n    tag_252:\n        /* \"#utility.yul\":13464:13502   */\n      tag_254\n        /* \"#utility.yul\":13496:13500   */\n      dup3\n        /* \"#utility.yul\":13490:13501   */\n      sload\n        /* \"#utility.yul\":13464:13502   */\n      tag_45\n      jump\t// in\n    tag_254:\n        /* \"#utility.yul\":13549:13616   */\n      tag_255\n        /* \"#utility.yul\":13609:13615   */\n      dup3\n        /* \"#utility.yul\":13601:13607   */\n      dup3\n        /* \"#utility.yul\":13595:13599   */\n      dup6\n        /* \"#utility.yul\":13549:13616   */\n      tag_101\n      jump\t// in\n    tag_255:\n        /* \"#utility.yul\":13643:13644   */\n      0x00\n        /* \"#utility.yul\":13667:13671   */\n      0x20\n        /* \"#utility.yul\":13654:13671   */\n      swap1\n      pop\n        /* \"#utility.yul\":13699:13701   */\n      0x1f\n        /* \"#utility.yul\":13691:13697   */\n      dup4\n        /* \"#utility.yul\":13688:13702   */\n      gt\n        /* \"#utility.yul\":13716:13717   */\n      0x01\n        /* \"#utility.yul\":13711:14329   */\n      dup2\n      eq\n      tag_257\n      jumpi\n        /* \"#utility.yul\":14373:14374   */\n      0x00\n        /* \"#utility.yul\":14390:14396   */\n      dup5\n        /* \"#utility.yul\":14387:14464   */\n      iszero\n      tag_258\n      jumpi\n        /* \"#utility.yul\":14439:14448   */\n      dup3\n        /* \"#utility.yul\":14434:14437   */\n      dup8\n        /* \"#utility.yul\":14430:14449   */\n      add\n        /* \"#utility.yul\":14424:14450   */\n      mload\n        /* \"#utility.yul\":14415:14450   */\n      swap1\n      pop\n        /* \"#utility.yul\":14387:14464   */\n    tag_258:\n        /* \"#utility.yul\":14490:14557   */\n      tag_259\n        /* \"#utility.yul\":14550:14556   */\n      dup6\n        /* \"#utility.yul\":14543:14548   */\n      dup3\n        /* \"#utility.yul\":14490:14557   */\n      tag_104\n      jump\t// in\n    tag_259:\n        /* \"#utility.yul\":14484:14488   */\n      dup7\n        /* \"#utility.yul\":14477:14558   */\n      sstore\n        /* \"#utility.yul\":14346:14568   */\n      pop\n        /* \"#utility.yul\":13681:14568   */\n      jump(tag_256)\n        /* \"#utility.yul\":13711:14329   */\n    tag_257:\n        /* \"#utility.yul\":13763:13767   */\n      0x1f\n        /* \"#utility.yul\":13759:13768   */\n      not\n        /* \"#utility.yul\":13751:13757   */\n      dup5\n        /* \"#utility.yul\":13747:13769   */\n      and\n        /* \"#utility.yul\":13797:13834   */\n      tag_260\n        /* \"#utility.yul\":13829:13833   */\n      dup7\n        /* \"#utility.yul\":13797:13834   */\n      tag_89\n      jump\t// in\n    tag_260:\n        /* \"#utility.yul\":13856:13857   */\n      0x00\n        /* \"#utility.yul\":13870:14078   */\n    tag_261:\n        /* \"#utility.yul\":13884:13891   */\n      dup3\n        /* \"#utility.yul\":13881:13882   */\n      dup2\n        /* \"#utility.yul\":13878:13892   */\n      lt\n        /* \"#utility.yul\":13870:14078   */\n      iszero\n      tag_263\n      jumpi\n        /* \"#utility.yul\":13963:13972   */\n      dup5\n        /* \"#utility.yul\":13958:13961   */\n      dup10\n        /* \"#utility.yul\":13954:13973   */\n      add\n        /* \"#utility.yul\":13948:13974   */\n      mload\n        /* \"#utility.yul\":13940:13946   */\n      dup3\n        /* \"#utility.yul\":13933:13975   */\n      sstore\n        /* \"#utility.yul\":14014:14015   */\n      0x01\n        /* \"#utility.yul\":14006:14012   */\n      dup3\n        /* \"#utility.yul\":14002:14016   */\n      add\n        /* \"#utility.yul\":13992:14016   */\n      swap2\n      pop\n        /* \"#utility.yul\":14061:14063   */\n      0x20\n        /* \"#utility.yul\":14050:14059   */\n      dup6\n        /* \"#utility.yul\":14046:14064   */\n      add\n        /* \"#utility.yul\":14033:14064   */\n      swap5\n      pop\n        /* \"#utility.yul\":13907:13911   */\n      0x20\n        /* \"#utility.yul\":13904:13905   */\n      dup2\n        /* \"#utility.yul\":13900:13912   */\n      add\n        /* \"#utility.yul\":13895:13912   */\n      swap1\n      pop\n        /* \"#utility.yul\":13870:14078   */\n      jump(tag_261)\n    tag_263:\n        /* \"#utility.yul\":14106:14112   */\n      dup7\n        /* \"#utility.yul\":14097:14104   */\n      dup4\n        /* \"#utility.yul\":14094:14113   */\n      lt\n        /* \"#utility.yul\":14091:14270   */\n      iszero\n      tag_264\n      jumpi\n        /* \"#utility.yul\":14164:14173   */\n      dup5\n        /* \"#utility.yul\":14159:14162   */\n      dup10\n        /* \"#utility.yul\":14155:14174   */\n      add\n        /* \"#utility.yul\":14149:14175   */\n      mload\n        /* \"#utility.yul\":14207:14255   */\n      tag_265\n        /* \"#utility.yul\":14249:14253   */\n      0x1f\n        /* \"#utility.yul\":14241:14247   */\n      dup10\n        /* \"#utility.yul\":14237:14254   */\n      and\n        /* \"#utility.yul\":14226:14235   */\n      dup3\n        /* \"#utility.yul\":14207:14255   */\n      tag_103\n      jump\t// in\n    tag_265:\n        /* \"#utility.yul\":14199:14205   */\n      dup4\n        /* \"#utility.yul\":14192:14256   */\n      sstore\n        /* \"#utility.yul\":14114:14270   */\n      pop\n        /* \"#utility.yul\":14091:14270   */\n    tag_264:\n        /* \"#utility.yul\":14316:14317   */\n      0x01\n        /* \"#utility.yul\":14312:14313   */\n      0x02\n        /* \"#utility.yul\":14304:14310   */\n      dup9\n        /* \"#utility.yul\":14300:14314   */\n      mul\n        /* \"#utility.yul\":14296:14318   */\n      add\n        /* \"#utility.yul\":14290:14294   */\n      dup9\n        /* \"#utility.yul\":14283:14319   */\n      sstore\n        /* \"#utility.yul\":13718:14329   */\n      pop\n      pop\n      pop\n        /* \"#utility.yul\":13681:14568   */\n    tag_256:\n      pop\n        /* \"#utility.yul\":13271:14574   */\n      pop\n      pop\n      pop\n        /* \"#utility.yul\":13179:14574   */\n      pop\n      pop\n      jump\t// out\n        /* \"#utility.yul\":14580:14753   */\n    tag_105:\n        /* \"#utility.yul\":14720:14745   */\n      0x4b756c6c616e696369207a6174656e206b617969746c69000000000000000000\n        /* \"#utility.yul\":14716:14717   */\n      0x00\n        /* \"#utility.yul\":14708:14714   */\n      dup3\n        /* \"#utility.yul\":14704:14718   */\n      add\n        /* \"#utility.yul\":14697:14746   */\n      mstore\n        /* \"#utility.yul\":14580:14753   */\n      pop\n      jump\t// out\n        /* \"#utility.yul\":14759:15125   */\n    tag_106:\n        /* \"#utility.yul\":14901:14904   */\n      0x00\n        /* \"#utility.yul\":14922:14989   */\n      tag_268\n        /* \"#utility.yul\":14986:14988   */\n      0x17\n        /* \"#utility.yul\":14981:14984   */\n      dup4\n        /* \"#utility.yul\":14922:14989   */\n      tag_76\n      jump\t// in\n    tag_268:\n        /* \"#utility.yul\":14915:14989   */\n      swap2\n      pop\n        /* \"#utility.yul\":14998:15091   */\n      tag_269\n        /* \"#utility.yul\":15087:15090   */\n      dup3\n        /* \"#utility.yul\":14998:15091   */\n      tag_105\n      jump\t// in\n    tag_269:\n        /* \"#utility.yul\":15116:15118   */\n      0x20\n        /* \"#utility.yul\":15111:15114   */\n      dup3\n        /* \"#utility.yul\":15107:15119   */\n      add\n        /* \"#utility.yul\":15100:15119   */\n      swap1\n      pop\n        /* \"#utility.yul\":14759:15125   */\n      swap2\n      swap1\n      pop\n      jump\t// out\n        /* \"#utility.yul\":15131:15550   */\n    tag_35:\n        /* \"#utility.yul\":15297:15301   */\n      0x00\n        /* \"#utility.yul\":15335:15337   */\n      0x20\n        /* \"#utility.yul\":15324:15333   */\n      dup3\n        /* \"#utility.yul\":15320:15338   */\n      add\n        /* \"#utility.yul\":15312:15338   */\n      swap1\n      pop\n        /* \"#utility.yul\":15384:15393   */\n      dup2\n        /* \"#utility.yul\":15378:15382   */\n      dup2\n        /* \"#utility.yul\":15374:15394   */\n      sub\n        /* \"#utility.yul\":15370:15371   */\n      0x00\n        /* \"#utility.yul\":15359:15368   */\n      dup4\n        /* \"#utility.yul\":15355:15372   */\n      add\n        /* \"#utility.yul\":15348:15395   */\n      mstore\n        /* \"#utility.yul\":15412:15543   */\n      tag_271\n        /* \"#utility.yul\":15538:15542   */\n      dup2\n        /* \"#utility.yul\":15412:15543   */\n      tag_106\n      jump\t// in\n    tag_271:\n        /* \"#utility.yul\":15404:15543   */\n      swap1\n      pop\n        /* \"#utility.yul\":15131:15550   */\n      swap2\n      swap1\n      pop\n      jump\t// out\n        /* \"#utility.yul\":15556:15869   */\n    tag_40:\n        /* \"#utility.yul\":15669:15673   */\n      0x00\n        /* \"#utility.yul\":15707:15709   */\n      0x20\n        /* \"#utility.yul\":15696:15705   */\n      dup3\n        /* \"#utility.yul\":15692:15710   */\n      add\n        /* \"#utility.yul\":15684:15710   */\n      swap1\n      pop\n        /* \"#utility.yul\":15756:15765   */\n      dup2\n        /* \"#utility.yul\":15750:15754   */\n      dup2\n        /* \"#utility.yul\":15746:15766   */\n      sub\n        /* \"#utility.yul\":15742:15743   */\n      0x00\n        /* \"#utility.yul\":15731:15740   */\n      dup4\n        /* \"#utility.yul\":15727:15744   */\n      add\n        /* \"#utility.yul\":15720:15767   */\n      mstore\n        /* \"#utility.yul\":15784:15862   */\n      tag_273\n        /* \"#utility.yul\":15857:15861   */\n      dup2\n        /* \"#utility.yul\":15848:15854   */\n      dup5\n        /* \"#utility.yul\":15784:15862   */\n      tag_78\n      jump\t// in\n    tag_273:\n        /* \"#utility.yul\":15776:15862   */\n      swap1\n      pop\n        /* \"#utility.yul\":15556:15869   */\n      swap3\n      swap2\n      pop\n      pop\n      jump\t// out\n\n    auxdata: 0xa2646970667358221220fc3f1d05206fde5197457c8a0bae251579cbb9ce411c20feb4eb2996790f90b264736f6c63430008160033\n}\n",
				"bytecode": {
					"linkReferences": {},
					"object": "608060405234801561000f575f80fd5b50610ee98061001d5f395ff3fe608060405234801561000f575f80fd5b506004361061004a575f3560e01c806310e8b22d1461004e5780631d2e4afd1461006a5780636f77926b14610086578063e2842d79146100b7575b5f80fd5b61006860048036038101906100639190610842565b6100d5565b005b610084600480360381019061007f91906108ca565b610201565b005b6100a0600480360381019061009b9190610940565b6103e6565b6040516100ae9291906109e5565b60405180910390f35b6100bf610611565b6040516100cc9190610ad1565b60405180910390f35b60015f8473ffffffffffffffffffffffffffffffffffffffff1673ffffffffffffffffffffffffffffffffffffffff1681526020019081526020015f206002015f9054906101000a900460ff16610161576040517f08c379a000000000000000000000000000000000000000000000000000000000815260040161015890610b3b565b60405180910390fd5b8160015f8573ffffffffffffffffffffffffffffffffffffffff1673ffffffffffffffffffffffffffffffffffffffff1681526020019081526020015f205f0190816101ad9190610d5c565b508060015f8573ffffffffffffffffffffffffffffffffffffffff1673ffffffffffffffffffffffffffffffffffffffff1681526020019081526020015f2060010190816101fb9190610d5c565b50505050565b60015f3373ffffffffffffffffffffffffffffffffffffffff1673ffffffffffffffffffffffffffffffffffffffff1681526020019081526020015f206002015f9054906101000a900460ff161561028e576040517f08c379a000000000000000000000000000000000000000000000000000000000815260040161028590610e75565b60405180910390fd5b60405180606001604052808381526020018281526020016001151581525060015f3373ffffffffffffffffffffffffffffffffffffffff1673ffffffffffffffffffffffffffffffffffffffff1681526020019081526020015f205f820151815f0190816102fc9190610d5c565b5060208201518160010190816103129190610d5c565b506040820151816002015f6101000a81548160ff0219169083151502179055509050505f33908060018154018082558091505060019003905f5260205f20015f9091909190916101000a81548173ffffffffffffffffffffffffffffffffffffffff021916908373ffffffffffffffffffffffffffffffffffffffff1602179055503373ffffffffffffffffffffffffffffffffffffffff167f48cac28ad4dc618e15f4c2dd5e97751182f166de97b25618318b2112aa951a2f836040516103da9190610e93565b60405180910390a25050565b60608060015f8473ffffffffffffffffffffffffffffffffffffffff1673ffffffffffffffffffffffffffffffffffffffff1681526020019081526020015f206002015f9054906101000a900460ff16610475576040517f08c379a000000000000000000000000000000000000000000000000000000000815260040161046c90610b3b565b60405180910390fd5b60015f8473ffffffffffffffffffffffffffffffffffffffff1673ffffffffffffffffffffffffffffffffffffffff1681526020019081526020015f205f0160015f8573ffffffffffffffffffffffffffffffffffffffff1673ffffffffffffffffffffffffffffffffffffffff1681526020019081526020015f2060010181805461050090610b86565b80601f016020809104026020016040519081016040528092919081815260200182805461052c90610b86565b80156105775780601f1061054e57610100808354040283529160200191610577565b820191905f5260205f20905b81548152906001019060200180831161055a57829003601f168201915b5050505050915080805461058a90610b86565b80601f01602080910402602001604051908101604052809291908181526020018280546105b690610b86565b80156106015780601f106105d857610100808354040283529160200191610601565b820191905f5260205f20905b8154815290600101906020018083116105e457829003601f168201915b5050505050905091509150915091565b60605f80548060200260200160405190810160405280929190818152602001828054801561069157602002820191905f5260205f20905b815f9054906101000a900473ffffffffffffffffffffffffffffffffffffffff1673ffffffffffffffffffffffffffffffffffffffff1681526020019060010190808311610648575b5050505050905090565b5f604051905090565b5f80fd5b5f80fd5b5f73ffffffffffffffffffffffffffffffffffffffff82169050919050565b5f6106d5826106ac565b9050919050565b6106e5816106cb565b81146106ef575f80fd5b50565b5f81359050610700816106dc565b92915050565b5f80fd5b5f80fd5b5f601f19601f8301169050919050565b7f4e487b71000000000000000000000000000000000000000000000000000000005f52604160045260245ffd5b6107548261070e565b810181811067ffffffffffffffff821117156107735761077261071e565b5b80604052505050565b5f61078561069b565b9050610791828261074b565b919050565b5f67ffffffffffffffff8211156107b0576107af61071e565b5b6107b98261070e565b9050602081019050919050565b828183375f83830152505050565b5f6107e66107e184610796565b61077c565b9050828152602081018484840111156108025761080161070a565b5b61080d8482856107c6565b509392505050565b5f82601f83011261082957610828610706565b5b81356108398482602086016107d4565b91505092915050565b5f805f60608486031215610859576108586106a4565b5b5f610866868287016106f2565b935050602084013567ffffffffffffffff811115610887576108866106a8565b5b61089386828701610815565b925050604084013567ffffffffffffffff8111156108b4576108b36106a8565b5b6108c086828701610815565b9150509250925092565b5f80604083850312156108e0576108df6106a4565b5b5f83013567ffffffffffffffff8111156108fd576108fc6106a8565b5b61090985828601610815565b925050602083013567ffffffffffffffff81111561092a576109296106a8565b5b61093685828601610815565b9150509250929050565b5f60208284031215610955576109546106a4565b5b5f610962848285016106f2565b91505092915050565b5f81519050919050565b5f82825260208201905092915050565b5f5b838110156109a2578082015181840152602081019050610987565b5f8484015250505050565b5f6109b78261096b565b6109c18185610975565b93506109d1818560208601610985565b6109da8161070e565b840191505092915050565b5f6040820190508181035f8301526109fd81856109ad565b90508181036020830152610a1181846109ad565b90509392505050565b5f81519050919050565b5f82825260208201905092915050565b5f819050602082019050919050565b610a4c816106cb565b82525050565b5f610a5d8383610a43565b60208301905092915050565b5f602082019050919050565b5f610a7f82610a1a565b610a898185610a24565b9350610a9483610a34565b805f5b83811015610ac4578151610aab8882610a52565b9750610ab683610a69565b925050600181019050610a97565b5085935050505092915050565b5f6020820190508181035f830152610ae98184610a75565b905092915050565b7f4b756c6c616e696369206b617969746c6920646567696c0000000000000000005f82015250565b5f610b25601783610975565b9150610b3082610af1565b602082019050919050565b5f6020820190508181035f830152610b5281610b19565b9050919050565b7f4e487b71000000000000000000000000000000000000000000000000000000005f52602260045260245ffd5b5f6002820490506001821680610b9d57607f821691505b602082108103610bb057610baf610b59565b5b50919050565b5f819050815f5260205f209050919050565b5f6020601f8301049050919050565b5f82821b905092915050565b5f60088302610c127fffffffffffffffffffffffffffffffffffffffffffffffffffffffffffffffff82610bd7565b610c1c8683610bd7565b95508019841693508086168417925050509392505050565b5f819050919050565b5f819050919050565b5f610c60610c5b610c5684610c34565b610c3d565b610c34565b9050919050565b5f819050919050565b610c7983610c46565b610c8d610c8582610c67565b848454610be3565b825550505050565b5f90565b610ca1610c95565b610cac818484610c70565b505050565b5b81811015610ccf57610cc45f82610c99565b600181019050610cb2565b5050565b601f821115610d1457610ce581610bb6565b610cee84610bc8565b81016020851015610cfd578190505b610d11610d0985610bc8565b830182610cb1565b50505b505050565b5f82821c905092915050565b5f610d345f1984600802610d19565b1980831691505092915050565b5f610d4c8383610d25565b9150826002028217905092915050565b610d658261096b565b67ffffffffffffffff811115610d7e57610d7d61071e565b5b610d888254610b86565b610d93828285610cd3565b5f60209050601f831160018114610dc4575f8415610db2578287015190505b610dbc8582610d41565b865550610e23565b601f198416610dd286610bb6565b5f5b82811015610df957848901518255600182019150602085019450602081019050610dd4565b86831015610e165784890151610e12601f891682610d25565b8355505b6001600288020188555050505b505050505050565b7f4b756c6c616e696369207a6174656e206b617969746c690000000000000000005f82015250565b5f610e5f601783610975565b9150610e6a82610e2b565b602082019050919050565b5f6020820190508181035f830152610e8c81610e53565b9050919050565b5f6020820190508181035f830152610eab81846109ad565b90509291505056fea2646970667358221220fc3f1d05206fde5197457c8a0bae251579cbb9ce411c20feb4eb2996790f90b264736f6c63430008160033",
					"opcodes": "PUSH1 0x80 PUSH1 0x40 MSTORE CALLVALUE DUP1 ISZERO PUSH2 0xF JUMPI PUSH0 DUP1 REVERT JUMPDEST POP PUSH2 0xEE9 DUP1 PUSH2 0x1D PUSH0 CODECOPY PUSH0 RETURN INVALID PUSH1 0x80 PUSH1 0x40 MSTORE CALLVALUE DUP1 ISZERO PUSH2 0xF JUMPI PUSH0 DUP1 REVERT JUMPDEST POP PUSH1 0x4 CALLDATASIZE LT PUSH2 0x4A JUMPI PUSH0 CALLDATALOAD PUSH1 0xE0 SHR DUP1 PUSH4 0x10E8B22D EQ PUSH2 0x4E JUMPI DUP1 PUSH4 0x1D2E4AFD EQ PUSH2 0x6A JUMPI DUP1 PUSH4 0x6F77926B EQ PUSH2 0x86 JUMPI DUP1 PUSH4 0xE2842D79 EQ PUSH2 0xB7 JUMPI JUMPDEST PUSH0 DUP1 REVERT JUMPDEST PUSH2 0x68 PUSH1 0x4 DUP1 CALLDATASIZE SUB DUP2 ADD SWAP1 PUSH2 0x63 SWAP2 SWAP1 PUSH2 0x842 JUMP JUMPDEST PUSH2 0xD5 JUMP JUMPDEST STOP JUMPDEST PUSH2 0x84 PUSH1 0x4 DUP1 CALLDATASIZE SUB DUP2 ADD SWAP1 PUSH2 0x7F SWAP2 SWAP1 PUSH2 0x8CA JUMP JUMPDEST PUSH2 0x201 JUMP JUMPDEST STOP JUMPDEST PUSH2 0xA0 PUSH1 0x4 DUP1 CALLDATASIZE SUB DUP2 ADD SWAP1 PUSH2 0x9B SWAP2 SWAP1 PUSH2 0x940 JUMP JUMPDEST PUSH2 0x3E6 JUMP JUMPDEST PUSH1 0x40 MLOAD PUSH2 0xAE SWAP3 SWAP2 SWAP1 PUSH2 0x9E5 JUMP JUMPDEST PUSH1 0x40 MLOAD DUP1 SWAP2 SUB SWAP1 RETURN JUMPDEST PUSH2 0xBF PUSH2 0x611 JUMP JUMPDEST PUSH1 0x40 MLOAD PUSH2 0xCC SWAP2 SWAP1 PUSH2 0xAD1 JUMP JUMPDEST PUSH1 0x40 MLOAD DUP1 SWAP2 SUB SWAP1 RETURN JUMPDEST PUSH1 0x1 PUSH0 DUP5 PUSH20 0xFFFFFFFFFFFFFFFFFFFFFFFFFFFFFFFFFFFFFFFF AND PUSH20 0xFFFFFFFFFFFFFFFFFFFFFFFFFFFFFFFFFFFFFFFF AND DUP2 MSTORE PUSH1 0x20 ADD SWAP1 DUP2 MSTORE PUSH1 0x20 ADD PUSH0 KECCAK256 PUSH1 0x2 ADD PUSH0 SWAP1 SLOAD SWAP1 PUSH2 0x100 EXP SWAP1 DIV PUSH1 0xFF AND PUSH2 0x161 JUMPI PUSH1 0x40 MLOAD PUSH32 0x8C379A000000000000000000000000000000000000000000000000000000000 DUP2 MSTORE PUSH1 0x4 ADD PUSH2 0x158 SWAP1 PUSH2 0xB3B JUMP JUMPDEST PUSH1 0x40 MLOAD DUP1 SWAP2 SUB SWAP1 REVERT JUMPDEST DUP2 PUSH1 0x1 PUSH0 DUP6 PUSH20 0xFFFFFFFFFFFFFFFFFFFFFFFFFFFFFFFFFFFFFFFF AND PUSH20 0xFFFFFFFFFFFFFFFFFFFFFFFFFFFFFFFFFFFFFFFF AND DUP2 MSTORE PUSH1 0x20 ADD SWAP1 DUP2 MSTORE PUSH1 0x20 ADD PUSH0 KECCAK256 PUSH0 ADD SWAP1 DUP2 PUSH2 0x1AD SWAP2 SWAP1 PUSH2 0xD5C JUMP JUMPDEST POP DUP1 PUSH1 0x1 PUSH0 DUP6 PUSH20 0xFFFFFFFFFFFFFFFFFFFFFFFFFFFFFFFFFFFFFFFF AND PUSH20 0xFFFFFFFFFFFFFFFFFFFFFFFFFFFFFFFFFFFFFFFF AND DUP2 MSTORE PUSH1 0x20 ADD SWAP1 DUP2 MSTORE PUSH1 0x20 ADD PUSH0 KECCAK256 PUSH1 0x1 ADD SWAP1 DUP2 PUSH2 0x1FB SWAP2 SWAP1 PUSH2 0xD5C JUMP JUMPDEST POP POP POP POP JUMP JUMPDEST PUSH1 0x1 PUSH0 CALLER PUSH20 0xFFFFFFFFFFFFFFFFFFFFFFFFFFFFFFFFFFFFFFFF AND PUSH20 0xFFFFFFFFFFFFFFFFFFFFFFFFFFFFFFFFFFFFFFFF AND DUP2 MSTORE PUSH1 0x20 ADD SWAP1 DUP2 MSTORE PUSH1 0x20 ADD PUSH0 KECCAK256 PUSH1 0x2 ADD PUSH0 SWAP1 SLOAD SWAP1 PUSH2 0x100 EXP SWAP1 DIV PUSH1 0xFF AND ISZERO PUSH2 0x28E JUMPI PUSH1 0x40 MLOAD PUSH32 0x8C379A000000000000000000000000000000000000000000000000000000000 DUP2 MSTORE PUSH1 0x4 ADD PUSH2 0x285 SWAP1 PUSH2 0xE75 JUMP JUMPDEST PUSH1 0x40 MLOAD DUP1 SWAP2 SUB SWAP1 REVERT JUMPDEST PUSH1 0x40 MLOAD DUP1 PUSH1 0x60 ADD PUSH1 0x40 MSTORE DUP1 DUP4 DUP2 MSTORE PUSH1 0x20 ADD DUP3 DUP2 MSTORE PUSH1 0x20 ADD PUSH1 0x1 ISZERO ISZERO DUP2 MSTORE POP PUSH1 0x1 PUSH0 CALLER PUSH20 0xFFFFFFFFFFFFFFFFFFFFFFFFFFFFFFFFFFFFFFFF AND PUSH20 0xFFFFFFFFFFFFFFFFFFFFFFFFFFFFFFFFFFFFFFFF AND DUP2 MSTORE PUSH1 0x20 ADD SWAP1 DUP2 MSTORE PUSH1 0x20 ADD PUSH0 KECCAK256 PUSH0 DUP3 ADD MLOAD DUP2 PUSH0 ADD SWAP1 DUP2 PUSH2 0x2FC SWAP2 SWAP1 PUSH2 0xD5C JUMP JUMPDEST POP PUSH1 0x20 DUP3 ADD MLOAD DUP2 PUSH1 0x1 ADD SWAP1 DUP2 PUSH2 0x312 SWAP2 SWAP1 PUSH2 0xD5C JUMP JUMPDEST POP PUSH1 0x40 DUP3 ADD MLOAD DUP2 PUSH1 0x2 ADD PUSH0 PUSH2 0x100 EXP DUP2 SLOAD DUP2 PUSH1 0xFF MUL NOT AND SWAP1 DUP4 ISZERO ISZERO MUL OR SWAP1 SSTORE POP SWAP1 POP POP PUSH0 CALLER SWAP1 DUP1 PUSH1 0x1 DUP2 SLOAD ADD DUP1 DUP3 SSTORE DUP1 SWAP2 POP POP PUSH1 0x1 SWAP1 SUB SWAP1 PUSH0 MSTORE PUSH1 0x20 PUSH0 KECCAK256 ADD PUSH0 SWAP1 SWAP2 SWAP1 SWAP2 SWAP1 SWAP2 PUSH2 0x100 EXP DUP2 SLOAD DUP2 PUSH20 0xFFFFFFFFFFFFFFFFFFFFFFFFFFFFFFFFFFFFFFFF MUL NOT AND SWAP1 DUP4 PUSH20 0xFFFFFFFFFFFFFFFFFFFFFFFFFFFFFFFFFFFFFFFF AND MUL OR SWAP1 SSTORE POP CALLER PUSH20 0xFFFFFFFFFFFFFFFFFFFFFFFFFFFFFFFFFFFFFFFF AND PUSH32 0x48CAC28AD4DC618E15F4C2DD5E97751182F166DE97B25618318B2112AA951A2F DUP4 PUSH1 0x40 MLOAD PUSH2 0x3DA SWAP2 SWAP1 PUSH2 0xE93 JUMP JUMPDEST PUSH1 0x40 MLOAD DUP1 SWAP2 SUB SWAP1 LOG2 POP POP JUMP JUMPDEST PUSH1 0x60 DUP1 PUSH1 0x1 PUSH0 DUP5 PUSH20 0xFFFFFFFFFFFFFFFFFFFFFFFFFFFFFFFFFFFFFFFF AND PUSH20 0xFFFFFFFFFFFFFFFFFFFFFFFFFFFFFFFFFFFFFFFF AND DUP2 MSTORE PUSH1 0x20 ADD SWAP1 DUP2 MSTORE PUSH1 0x20 ADD PUSH0 KECCAK256 PUSH1 0x2 ADD PUSH0 SWAP1 SLOAD SWAP1 PUSH2 0x100 EXP SWAP1 DIV PUSH1 0xFF AND PUSH2 0x475 JUMPI PUSH1 0x40 MLOAD PUSH32 0x8C379A000000000000000000000000000000000000000000000000000000000 DUP2 MSTORE PUSH1 0x4 ADD PUSH2 0x46C SWAP1 PUSH2 0xB3B JUMP JUMPDEST PUSH1 0x40 MLOAD DUP1 SWAP2 SUB SWAP1 REVERT JUMPDEST PUSH1 0x1 PUSH0 DUP5 PUSH20 0xFFFFFFFFFFFFFFFFFFFFFFFFFFFFFFFFFFFFFFFF AND PUSH20 0xFFFFFFFFFFFFFFFFFFFFFFFFFFFFFFFFFFFFFFFF AND DUP2 MSTORE PUSH1 0x20 ADD SWAP1 DUP2 MSTORE PUSH1 0x20 ADD PUSH0 KECCAK256 PUSH0 ADD PUSH1 0x1 PUSH0 DUP6 PUSH20 0xFFFFFFFFFFFFFFFFFFFFFFFFFFFFFFFFFFFFFFFF AND PUSH20 0xFFFFFFFFFFFFFFFFFFFFFFFFFFFFFFFFFFFFFFFF AND DUP2 MSTORE PUSH1 0x20 ADD SWAP1 DUP2 MSTORE PUSH1 0x20 ADD PUSH0 KECCAK256 PUSH1 0x1 ADD DUP2 DUP1 SLOAD PUSH2 0x500 SWAP1 PUSH2 0xB86 JUMP JUMPDEST DUP1 PUSH1 0x1F ADD PUSH1 0x20 DUP1 SWAP2 DIV MUL PUSH1 0x20 ADD PUSH1 0x40 MLOAD SWAP1 DUP2 ADD PUSH1 0x40 MSTORE DUP1 SWAP3 SWAP2 SWAP1 DUP2 DUP2 MSTORE PUSH1 0x20 ADD DUP3 DUP1 SLOAD PUSH2 0x52C SWAP1 PUSH2 0xB86 JUMP JUMPDEST DUP1 ISZERO PUSH2 0x577 JUMPI DUP1 PUSH1 0x1F LT PUSH2 0x54E JUMPI PUSH2 0x100 DUP1 DUP4 SLOAD DIV MUL DUP4 MSTORE SWAP2 PUSH1 0x20 ADD SWAP2 PUSH2 0x577 JUMP JUMPDEST DUP3 ADD SWAP2 SWAP1 PUSH0 MSTORE PUSH1 0x20 PUSH0 KECCAK256 SWAP1 JUMPDEST DUP2 SLOAD DUP2 MSTORE SWAP1 PUSH1 0x1 ADD SWAP1 PUSH1 0x20 ADD DUP1 DUP4 GT PUSH2 0x55A JUMPI DUP3 SWAP1 SUB PUSH1 0x1F AND DUP3 ADD SWAP2 JUMPDEST POP POP POP POP POP SWAP2 POP DUP1 DUP1 SLOAD PUSH2 0x58A SWAP1 PUSH2 0xB86 JUMP JUMPDEST DUP1 PUSH1 0x1F ADD PUSH1 0x20 DUP1 SWAP2 DIV MUL PUSH1 0x20 ADD PUSH1 0x40 MLOAD SWAP1 DUP2 ADD PUSH1 0x40 MSTORE DUP1 SWAP3 SWAP2 SWAP1 DUP2 DUP2 MSTORE PUSH1 0x20 ADD DUP3 DUP1 SLOAD PUSH2 0x5B6 SWAP1 PUSH2 0xB86 JUMP JUMPDEST DUP1 ISZERO PUSH2 0x601 JUMPI DUP1 PUSH1 0x1F LT PUSH2 0x5D8 JUMPI PUSH2 0x100 DUP1 DUP4 SLOAD DIV MUL DUP4 MSTORE SWAP2 PUSH1 0x20 ADD SWAP2 PUSH2 0x601 JUMP JUMPDEST DUP3 ADD SWAP2 SWAP1 PUSH0 MSTORE PUSH1 0x20 PUSH0 KECCAK256 SWAP1 JUMPDEST DUP2 SLOAD DUP2 MSTORE SWAP1 PUSH1 0x1 ADD SWAP1 PUSH1 0x20 ADD DUP1 DUP4 GT PUSH2 0x5E4 JUMPI DUP3 SWAP1 SUB PUSH1 0x1F AND DUP3 ADD SWAP2 JUMPDEST POP POP POP POP POP SWAP1 POP SWAP2 POP SWAP2 POP SWAP2 POP SWAP2 JUMP JUMPDEST PUSH1 0x60 PUSH0 DUP1 SLOAD DUP1 PUSH1 0x20 MUL PUSH1 0x20 ADD PUSH1 0x40 MLOAD SWAP1 DUP2 ADD PUSH1 0x40 MSTORE DUP1 SWAP3 SWAP2 SWAP1 DUP2 DUP2 MSTORE PUSH1 0x20 ADD DUP3 DUP1 SLOAD DUP1 ISZERO PUSH2 0x691 JUMPI PUSH1 0x20 MUL DUP3 ADD SWAP2 SWAP1 PUSH0 MSTORE PUSH1 0x20 PUSH0 KECCAK256 SWAP1 JUMPDEST DUP2 PUSH0 SWAP1 SLOAD SWAP1 PUSH2 0x100 EXP SWAP1 DIV PUSH20 0xFFFFFFFFFFFFFFFFFFFFFFFFFFFFFFFFFFFFFFFF AND PUSH20 0xFFFFFFFFFFFFFFFFFFFFFFFFFFFFFFFFFFFFFFFF AND DUP2 MSTORE PUSH1 0x20 ADD SWAP1 PUSH1 0x1 ADD SWAP1 DUP1 DUP4 GT PUSH2 0x648 JUMPI JUMPDEST POP POP POP POP POP SWAP1 POP SWAP1 JUMP JUMPDEST PUSH0 PUSH1 0x40 MLOAD SWAP1 POP SWAP1 JUMP JUMPDEST PUSH0 DUP1 REVERT JUMPDEST PUSH0 DUP1 REVERT JUMPDEST PUSH0 PUSH20 0xFFFFFFFFFFFFFFFFFFFFFFFFFFFFFFFFFFFFFFFF DUP3 AND SWAP1 POP SWAP2 SWAP1 POP JUMP JUMPDEST PUSH0 PUSH2 0x6D5 DUP3 PUSH2 0x6AC JUMP JUMPDEST SWAP1 POP SWAP2 SWAP1 POP JUMP JUMPDEST PUSH2 0x6E5 DUP2 PUSH2 0x6CB JUMP JUMPDEST DUP2 EQ PUSH2 0x6EF JUMPI PUSH0 DUP1 REVERT JUMPDEST POP JUMP JUMPDEST PUSH0 DUP2 CALLDATALOAD SWAP1 POP PUSH2 0x700 DUP2 PUSH2 0x6DC JUMP JUMPDEST SWAP3 SWAP2 POP POP JUMP JUMPDEST PUSH0 DUP1 REVERT JUMPDEST PUSH0 DUP1 REVERT JUMPDEST PUSH0 PUSH1 0x1F NOT PUSH1 0x1F DUP4 ADD AND SWAP1 POP SWAP2 SWAP1 POP JUMP JUMPDEST PUSH32 0x4E487B7100000000000000000000000000000000000000000000000000000000 PUSH0 MSTORE PUSH1 0x41 PUSH1 0x4 MSTORE PUSH1 0x24 PUSH0 REVERT JUMPDEST PUSH2 0x754 DUP3 PUSH2 0x70E JUMP JUMPDEST DUP2 ADD DUP2 DUP2 LT PUSH8 0xFFFFFFFFFFFFFFFF DUP3 GT OR ISZERO PUSH2 0x773 JUMPI PUSH2 0x772 PUSH2 0x71E JUMP JUMPDEST JUMPDEST DUP1 PUSH1 0x40 MSTORE POP POP POP JUMP JUMPDEST PUSH0 PUSH2 0x785 PUSH2 0x69B JUMP JUMPDEST SWAP1 POP PUSH2 0x791 DUP3 DUP3 PUSH2 0x74B JUMP JUMPDEST SWAP2 SWAP1 POP JUMP JUMPDEST PUSH0 PUSH8 0xFFFFFFFFFFFFFFFF DUP3 GT ISZERO PUSH2 0x7B0 JUMPI PUSH2 0x7AF PUSH2 0x71E JUMP JUMPDEST JUMPDEST PUSH2 0x7B9 DUP3 PUSH2 0x70E JUMP JUMPDEST SWAP1 POP PUSH1 0x20 DUP2 ADD SWAP1 POP SWAP2 SWAP1 POP JUMP JUMPDEST DUP3 DUP2 DUP4 CALLDATACOPY PUSH0 DUP4 DUP4 ADD MSTORE POP POP POP JUMP JUMPDEST PUSH0 PUSH2 0x7E6 PUSH2 0x7E1 DUP5 PUSH2 0x796 JUMP JUMPDEST PUSH2 0x77C JUMP JUMPDEST SWAP1 POP DUP3 DUP2 MSTORE PUSH1 0x20 DUP2 ADD DUP5 DUP5 DUP5 ADD GT ISZERO PUSH2 0x802 JUMPI PUSH2 0x801 PUSH2 0x70A JUMP JUMPDEST JUMPDEST PUSH2 0x80D DUP5 DUP3 DUP6 PUSH2 0x7C6 JUMP JUMPDEST POP SWAP4 SWAP3 POP POP POP JUMP JUMPDEST PUSH0 DUP3 PUSH1 0x1F DUP4 ADD SLT PUSH2 0x829 JUMPI PUSH2 0x828 PUSH2 0x706 JUMP JUMPDEST JUMPDEST DUP2 CALLDATALOAD PUSH2 0x839 DUP5 DUP3 PUSH1 0x20 DUP7 ADD PUSH2 0x7D4 JUMP JUMPDEST SWAP2 POP POP SWAP3 SWAP2 POP POP JUMP JUMPDEST PUSH0 DUP1 PUSH0 PUSH1 0x60 DUP5 DUP7 SUB SLT ISZERO PUSH2 0x859 JUMPI PUSH2 0x858 PUSH2 0x6A4 JUMP JUMPDEST JUMPDEST PUSH0 PUSH2 0x866 DUP7 DUP3 DUP8 ADD PUSH2 0x6F2 JUMP JUMPDEST SWAP4 POP POP PUSH1 0x20 DUP5 ADD CALLDATALOAD PUSH8 0xFFFFFFFFFFFFFFFF DUP2 GT ISZERO PUSH2 0x887 JUMPI PUSH2 0x886 PUSH2 0x6A8 JUMP JUMPDEST JUMPDEST PUSH2 0x893 DUP7 DUP3 DUP8 ADD PUSH2 0x815 JUMP JUMPDEST SWAP3 POP POP PUSH1 0x40 DUP5 ADD CALLDATALOAD PUSH8 0xFFFFFFFFFFFFFFFF DUP2 GT ISZERO PUSH2 0x8B4 JUMPI PUSH2 0x8B3 PUSH2 0x6A8 JUMP JUMPDEST JUMPDEST PUSH2 0x8C0 DUP7 DUP3 DUP8 ADD PUSH2 0x815 JUMP JUMPDEST SWAP2 POP POP SWAP3 POP SWAP3 POP SWAP3 JUMP JUMPDEST PUSH0 DUP1 PUSH1 0x40 DUP4 DUP6 SUB SLT ISZERO PUSH2 0x8E0 JUMPI PUSH2 0x8DF PUSH2 0x6A4 JUMP JUMPDEST JUMPDEST PUSH0 DUP4 ADD CALLDATALOAD PUSH8 0xFFFFFFFFFFFFFFFF DUP2 GT ISZERO PUSH2 0x8FD JUMPI PUSH2 0x8FC PUSH2 0x6A8 JUMP JUMPDEST JUMPDEST PUSH2 0x909 DUP6 DUP3 DUP7 ADD PUSH2 0x815 JUMP JUMPDEST SWAP3 POP POP PUSH1 0x20 DUP4 ADD CALLDATALOAD PUSH8 0xFFFFFFFFFFFFFFFF DUP2 GT ISZERO PUSH2 0x92A JUMPI PUSH2 0x929 PUSH2 0x6A8 JUMP JUMPDEST JUMPDEST PUSH2 0x936 DUP6 DUP3 DUP7 ADD PUSH2 0x815 JUMP JUMPDEST SWAP2 POP POP SWAP3 POP SWAP3 SWAP1 POP JUMP JUMPDEST PUSH0 PUSH1 0x20 DUP3 DUP5 SUB SLT ISZERO PUSH2 0x955 JUMPI PUSH2 0x954 PUSH2 0x6A4 JUMP JUMPDEST JUMPDEST PUSH0 PUSH2 0x962 DUP5 DUP3 DUP6 ADD PUSH2 0x6F2 JUMP JUMPDEST SWAP2 POP POP SWAP3 SWAP2 POP POP JUMP JUMPDEST PUSH0 DUP2 MLOAD SWAP1 POP SWAP2 SWAP1 POP JUMP JUMPDEST PUSH0 DUP3 DUP3 MSTORE PUSH1 0x20 DUP3 ADD SWAP1 POP SWAP3 SWAP2 POP POP JUMP JUMPDEST PUSH0 JUMPDEST DUP4 DUP2 LT ISZERO PUSH2 0x9A2 JUMPI DUP1 DUP3 ADD MLOAD DUP2 DUP5 ADD MSTORE PUSH1 0x20 DUP2 ADD SWAP1 POP PUSH2 0x987 JUMP JUMPDEST PUSH0 DUP5 DUP5 ADD MSTORE POP POP POP POP JUMP JUMPDEST PUSH0 PUSH2 0x9B7 DUP3 PUSH2 0x96B JUMP JUMPDEST PUSH2 0x9C1 DUP2 DUP6 PUSH2 0x975 JUMP JUMPDEST SWAP4 POP PUSH2 0x9D1 DUP2 DUP6 PUSH1 0x20 DUP7 ADD PUSH2 0x985 JUMP JUMPDEST PUSH2 0x9DA DUP2 PUSH2 0x70E JUMP JUMPDEST DUP5 ADD SWAP2 POP POP SWAP3 SWAP2 POP POP JUMP JUMPDEST PUSH0 PUSH1 0x40 DUP3 ADD SWAP1 POP DUP2 DUP2 SUB PUSH0 DUP4 ADD MSTORE PUSH2 0x9FD DUP2 DUP6 PUSH2 0x9AD JUMP JUMPDEST SWAP1 POP DUP2 DUP2 SUB PUSH1 0x20 DUP4 ADD MSTORE PUSH2 0xA11 DUP2 DUP5 PUSH2 0x9AD JUMP JUMPDEST SWAP1 POP SWAP4 SWAP3 POP POP POP JUMP JUMPDEST PUSH0 DUP2 MLOAD SWAP1 POP SWAP2 SWAP1 POP JUMP JUMPDEST PUSH0 DUP3 DUP3 MSTORE PUSH1 0x20 DUP3 ADD SWAP1 POP SWAP3 SWAP2 POP POP JUMP JUMPDEST PUSH0 DUP2 SWAP1 POP PUSH1 0x20 DUP3 ADD SWAP1 POP SWAP2 SWAP1 POP JUMP JUMPDEST PUSH2 0xA4C DUP2 PUSH2 0x6CB JUMP JUMPDEST DUP3 MSTORE POP POP JUMP JUMPDEST PUSH0 PUSH2 0xA5D DUP4 DUP4 PUSH2 0xA43 JUMP JUMPDEST PUSH1 0x20 DUP4 ADD SWAP1 POP SWAP3 SWAP2 POP POP JUMP JUMPDEST PUSH0 PUSH1 0x20 DUP3 ADD SWAP1 POP SWAP2 SWAP1 POP JUMP JUMPDEST PUSH0 PUSH2 0xA7F DUP3 PUSH2 0xA1A JUMP JUMPDEST PUSH2 0xA89 DUP2 DUP6 PUSH2 0xA24 JUMP JUMPDEST SWAP4 POP PUSH2 0xA94 DUP4 PUSH2 0xA34 JUMP JUMPDEST DUP1 PUSH0 JUMPDEST DUP4 DUP2 LT ISZERO PUSH2 0xAC4 JUMPI DUP2 MLOAD PUSH2 0xAAB DUP9 DUP3 PUSH2 0xA52 JUMP JUMPDEST SWAP8 POP PUSH2 0xAB6 DUP4 PUSH2 0xA69 JUMP JUMPDEST SWAP3 POP POP PUSH1 0x1 DUP2 ADD SWAP1 POP PUSH2 0xA97 JUMP JUMPDEST POP DUP6 SWAP4 POP POP POP POP SWAP3 SWAP2 POP POP JUMP JUMPDEST PUSH0 PUSH1 0x20 DUP3 ADD SWAP1 POP DUP2 DUP2 SUB PUSH0 DUP4 ADD MSTORE PUSH2 0xAE9 DUP2 DUP5 PUSH2 0xA75 JUMP JUMPDEST SWAP1 POP SWAP3 SWAP2 POP POP JUMP JUMPDEST PUSH32 0x4B756C6C616E696369206B617969746C6920646567696C000000000000000000 PUSH0 DUP3 ADD MSTORE POP JUMP JUMPDEST PUSH0 PUSH2 0xB25 PUSH1 0x17 DUP4 PUSH2 0x975 JUMP JUMPDEST SWAP2 POP PUSH2 0xB30 DUP3 PUSH2 0xAF1 JUMP JUMPDEST PUSH1 0x20 DUP3 ADD SWAP1 POP SWAP2 SWAP1 POP JUMP JUMPDEST PUSH0 PUSH1 0x20 DUP3 ADD SWAP1 POP DUP2 DUP2 SUB PUSH0 DUP4 ADD MSTORE PUSH2 0xB52 DUP2 PUSH2 0xB19 JUMP JUMPDEST SWAP1 POP SWAP2 SWAP1 POP JUMP JUMPDEST PUSH32 0x4E487B7100000000000000000000000000000000000000000000000000000000 PUSH0 MSTORE PUSH1 0x22 PUSH1 0x4 MSTORE PUSH1 0x24 PUSH0 REVERT JUMPDEST PUSH0 PUSH1 0x2 DUP3 DIV SWAP1 POP PUSH1 0x1 DUP3 AND DUP1 PUSH2 0xB9D JUMPI PUSH1 0x7F DUP3 AND SWAP2 POP JUMPDEST PUSH1 0x20 DUP3 LT DUP2 SUB PUSH2 0xBB0 JUMPI PUSH2 0xBAF PUSH2 0xB59 JUMP JUMPDEST JUMPDEST POP SWAP2 SWAP1 POP JUMP JUMPDEST PUSH0 DUP2 SWAP1 POP DUP2 PUSH0 MSTORE PUSH1 0x20 PUSH0 KECCAK256 SWAP1 POP SWAP2 SWAP1 POP JUMP JUMPDEST PUSH0 PUSH1 0x20 PUSH1 0x1F DUP4 ADD DIV SWAP1 POP SWAP2 SWAP1 POP JUMP JUMPDEST PUSH0 DUP3 DUP3 SHL SWAP1 POP SWAP3 SWAP2 POP POP JUMP JUMPDEST PUSH0 PUSH1 0x8 DUP4 MUL PUSH2 0xC12 PUSH32 0xFFFFFFFFFFFFFFFFFFFFFFFFFFFFFFFFFFFFFFFFFFFFFFFFFFFFFFFFFFFFFFFF DUP3 PUSH2 0xBD7 JUMP JUMPDEST PUSH2 0xC1C DUP7 DUP4 PUSH2 0xBD7 JUMP JUMPDEST SWAP6 POP DUP1 NOT DUP5 AND SWAP4 POP DUP1 DUP7 AND DUP5 OR SWAP3 POP POP POP SWAP4 SWAP3 POP POP POP JUMP JUMPDEST PUSH0 DUP2 SWAP1 POP SWAP2 SWAP1 POP JUMP JUMPDEST PUSH0 DUP2 SWAP1 POP SWAP2 SWAP1 POP JUMP JUMPDEST PUSH0 PUSH2 0xC60 PUSH2 0xC5B PUSH2 0xC56 DUP5 PUSH2 0xC34 JUMP JUMPDEST PUSH2 0xC3D JUMP JUMPDEST PUSH2 0xC34 JUMP JUMPDEST SWAP1 POP SWAP2 SWAP1 POP JUMP JUMPDEST PUSH0 DUP2 SWAP1 POP SWAP2 SWAP1 POP JUMP JUMPDEST PUSH2 0xC79 DUP4 PUSH2 0xC46 JUMP JUMPDEST PUSH2 0xC8D PUSH2 0xC85 DUP3 PUSH2 0xC67 JUMP JUMPDEST DUP5 DUP5 SLOAD PUSH2 0xBE3 JUMP JUMPDEST DUP3 SSTORE POP POP POP POP JUMP JUMPDEST PUSH0 SWAP1 JUMP JUMPDEST PUSH2 0xCA1 PUSH2 0xC95 JUMP JUMPDEST PUSH2 0xCAC DUP2 DUP5 DUP5 PUSH2 0xC70 JUMP JUMPDEST POP POP POP JUMP JUMPDEST JUMPDEST DUP2 DUP2 LT ISZERO PUSH2 0xCCF JUMPI PUSH2 0xCC4 PUSH0 DUP3 PUSH2 0xC99 JUMP JUMPDEST PUSH1 0x1 DUP2 ADD SWAP1 POP PUSH2 0xCB2 JUMP JUMPDEST POP POP JUMP JUMPDEST PUSH1 0x1F DUP3 GT ISZERO PUSH2 0xD14 JUMPI PUSH2 0xCE5 DUP2 PUSH2 0xBB6 JUMP JUMPDEST PUSH2 0xCEE DUP5 PUSH2 0xBC8 JUMP JUMPDEST DUP2 ADD PUSH1 0x20 DUP6 LT ISZERO PUSH2 0xCFD JUMPI DUP2 SWAP1 POP JUMPDEST PUSH2 0xD11 PUSH2 0xD09 DUP6 PUSH2 0xBC8 JUMP JUMPDEST DUP4 ADD DUP3 PUSH2 0xCB1 JUMP JUMPDEST POP POP JUMPDEST POP POP POP JUMP JUMPDEST PUSH0 DUP3 DUP3 SHR SWAP1 POP SWAP3 SWAP2 POP POP JUMP JUMPDEST PUSH0 PUSH2 0xD34 PUSH0 NOT DUP5 PUSH1 0x8 MUL PUSH2 0xD19 JUMP JUMPDEST NOT DUP1 DUP4 AND SWAP2 POP POP SWAP3 SWAP2 POP POP JUMP JUMPDEST PUSH0 PUSH2 0xD4C DUP4 DUP4 PUSH2 0xD25 JUMP JUMPDEST SWAP2 POP DUP3 PUSH1 0x2 MUL DUP3 OR SWAP1 POP SWAP3 SWAP2 POP POP JUMP JUMPDEST PUSH2 0xD65 DUP3 PUSH2 0x96B JUMP JUMPDEST PUSH8 0xFFFFFFFFFFFFFFFF DUP2 GT ISZERO PUSH2 0xD7E JUMPI PUSH2 0xD7D PUSH2 0x71E JUMP JUMPDEST JUMPDEST PUSH2 0xD88 DUP3 SLOAD PUSH2 0xB86 JUMP JUMPDEST PUSH2 0xD93 DUP3 DUP3 DUP6 PUSH2 0xCD3 JUMP JUMPDEST PUSH0 PUSH1 0x20 SWAP1 POP PUSH1 0x1F DUP4 GT PUSH1 0x1 DUP2 EQ PUSH2 0xDC4 JUMPI PUSH0 DUP5 ISZERO PUSH2 0xDB2 JUMPI DUP3 DUP8 ADD MLOAD SWAP1 POP JUMPDEST PUSH2 0xDBC DUP6 DUP3 PUSH2 0xD41 JUMP JUMPDEST DUP7 SSTORE POP PUSH2 0xE23 JUMP JUMPDEST PUSH1 0x1F NOT DUP5 AND PUSH2 0xDD2 DUP7 PUSH2 0xBB6 JUMP JUMPDEST PUSH0 JUMPDEST DUP3 DUP2 LT ISZERO PUSH2 0xDF9 JUMPI DUP5 DUP10 ADD MLOAD DUP3 SSTORE PUSH1 0x1 DUP3 ADD SWAP2 POP PUSH1 0x20 DUP6 ADD SWAP5 POP PUSH1 0x20 DUP2 ADD SWAP1 POP PUSH2 0xDD4 JUMP JUMPDEST DUP7 DUP4 LT ISZERO PUSH2 0xE16 JUMPI DUP5 DUP10 ADD MLOAD PUSH2 0xE12 PUSH1 0x1F DUP10 AND DUP3 PUSH2 0xD25 JUMP JUMPDEST DUP4 SSTORE POP JUMPDEST PUSH1 0x1 PUSH1 0x2 DUP9 MUL ADD DUP9 SSTORE POP POP POP JUMPDEST POP POP POP POP POP POP JUMP JUMPDEST PUSH32 0x4B756C6C616E696369207A6174656E206B617969746C69000000000000000000 PUSH0 DUP3 ADD MSTORE POP JUMP JUMPDEST PUSH0 PUSH2 0xE5F PUSH1 0x17 DUP4 PUSH2 0x975 JUMP JUMPDEST SWAP2 POP PUSH2 0xE6A DUP3 PUSH2 0xE2B JUMP JUMPDEST PUSH1 0x20 DUP3 ADD SWAP1 POP SWAP2 SWAP1 POP JUMP JUMPDEST PUSH0 PUSH1 0x20 DUP3 ADD SWAP1 POP DUP2 DUP2 SUB PUSH0 DUP4 ADD MSTORE PUSH2 0xE8C DUP2 PUSH2 0xE53 JUMP JUMPDEST SWAP1 POP SWAP2 SWAP1 POP JUMP JUMPDEST PUSH0 PUSH1 0x20 DUP3 ADD SWAP1 POP DUP2 DUP2 SUB PUSH0 DUP4 ADD MSTORE PUSH2 0xEAB DUP2 DUP5 PUSH2 0x9AD JUMP JUMPDEST SWAP1 POP SWAP3 SWAP2 POP POP JUMP INVALID LOG2 PUSH5 0x6970667358 0x22 SLT KECCAK256 0xFC EXTCODEHASH SAR SDIV KECCAK256 PUSH16 0xDE5197457C8A0BAE251579CBB9CE411C KECCAK256 INVALID 0xB4 0xEB 0x29 SWAP7 PUSH26 0xF90B264736F6C63430008160033000000000000000000000000 "
				},
				"gasEstimates": {
					"creation": {
						"codeDepositCost": "763400",
						"executionCost": "797",
						"totalCost": "764197"
					},
					"external": {
						"getAllUsers()": "infinite",
						"getUser(address)": "infinite",
						"registerUser(string,string)": "infinite",
						"updateUser(address,string,string)": "infinite"
					}
				},
				"methodIdentifiers": {
					"getAllUsers()": "e2842d79",
					"getUser(address)": "6f77926b",
					"registerUser(string,string)": "1d2e4afd",
					"updateUser(address,string,string)": "10e8b22d"
				}
			},
			"storageLayout": {
				"storage": [
					{
						"astId": 11,
						"contract": "Desktop/solidity/tubitak/login.sol:UserPanel",
						"label": "userAddresses",
						"offset": 0,
						"slot": "0",
						"type": "t_array(t_address)dyn_storage"
					},
					{
						"astId": 16,
						"contract": "Desktop/solidity/tubitak/login.sol:UserPanel",
						"label": "users",
						"offset": 0,
						"slot": "1",
						"type": "t_mapping(t_address,t_struct(User)8_storage)"
					}
				],
				"types": {
					"t_address": {
						"encoding": "inplace",
						"label": "address",
						"numberOfBytes": "20"
					},
					"t_array(t_address)dyn_storage": {
						"base": "t_address",
						"encoding": "dynamic_array",
						"label": "address[]",
						"numberOfBytes": "32"
					},
					"t_bool": {
						"encoding": "inplace",
						"label": "bool",
						"numberOfBytes": "1"
					},
					"t_mapping(t_address,t_struct(User)8_storage)": {
						"encoding": "mapping",
						"key": "t_address",
						"label": "mapping(address => struct UserPanel.User)",
						"numberOfBytes": "32",
						"value": "t_struct(User)8_storage"
					},
					"t_string_storage": {
						"encoding": "bytes",
						"label": "string",
						"numberOfBytes": "32"
					},
					"t_struct(User)8_storage": {
						"encoding": "inplace",
						"label": "struct UserPanel.User",
						"members": [
							{
								"astId": 3,
								"contract": "Desktop/solidity/tubitak/login.sol:UserPanel",
								"label": "username",
								"offset": 0,
								"slot": "0",
								"type": "t_string_storage"
							},
							{
								"astId": 5,
								"contract": "Desktop/solidity/tubitak/login.sol:UserPanel",
								"label": "password",
								"offset": 0,
								"slot": "1",
								"type": "t_string_storage"
							},
							{
								"astId": 7,
								"contract": "Desktop/solidity/tubitak/login.sol:UserPanel",
								"label": "registered",
								"offset": 0,
								"slot": "2",
								"type": "t_bool"
							}
						],
						"numberOfBytes": "96"
					}
				}
			},
			"userdoc": {
				"kind": "user",
				"methods": {},
				"version": 1
			}
		}
	}
}