{
  "_format": "hh-sol-artifact-1",
  "contractName": "ECommercePayment",
  "sourceName": "contracts/ETicaret.sol",
  "abi": [
    {
      "inputs": [
        {
          "internalType": "contract HititCoin",
          "name": "_token",
          "type": "address"
        }
      ],
      "stateMutability": "nonpayable",
      "type": "constructor"
    },
    {
      "anonymous": false,
      "inputs": [
        {
          "indexed": true,
          "internalType": "address",
          "name": "buyer",
          "type": "address"
        },
        {
          "indexed": true,
          "internalType": "address",
          "name": "seller",
          "type": "address"
        },
        {
          "indexed": false,
          "internalType": "uint256",
          "name": "amount",
          "type": "uint256"
        },
        {
          "indexed": false,
          "internalType": "uint256",
          "name": "orderId",
          "type": "uint256"
        }
      ],
      "name": "PaymentReceived",
      "type": "event"
    },
    {
      "anonymous": false,
      "inputs": [
        {
          "indexed": true,
          "internalType": "address",
          "name": "seller",
          "type": "address"
        },
        {
          "indexed": true,
          "internalType": "address",
          "name": "buyer",
          "type": "address"
        },
        {
          "indexed": false,
          "internalType": "uint256",
          "name": "amount",
          "type": "uint256"
        },
        {
          "indexed": false,
          "internalType": "uint256",
          "name": "orderId",
          "type": "uint256"
        }
      ],
      "name": "RefundIssued",
      "type": "event"
    },
    {
      "inputs": [
        {
          "internalType": "address",
          "name": "buyer",
          "type": "address"
        },
        {
          "internalType": "uint256",
          "name": "amount",
          "type": "uint256"
        },
        {
          "internalType": "uint256",
          "name": "orderId",
          "type": "uint256"
        }
      ],
      "name": "issueRefund",
      "outputs": [],
      "stateMutability": "nonpayable",
      "type": "function"
    },
    {
      "inputs": [
        {
          "internalType": "address",
          "name": "seller",
          "type": "address"
        },
        {
          "internalType": "uint256",
          "name": "amount",
          "type": "uint256"
        },
        {
          "internalType": "uint256",
          "name": "orderId",
          "type": "uint256"
        }
      ],
      "name": "pay",
      "outputs": [],
      "stateMutability": "nonpayable",
      "type": "function"
    },
    {
      "inputs": [],
      "name": "token",
      "outputs": [
        {
          "internalType": "contract HititCoin",
          "name": "",
          "type": "address"
        }
      ],
      "stateMutability": "view",
      "type": "function"
    }
  ],
  "bytecode": "0x608060405234801561001057600080fd5b506040516109b33803806109b3833981810160405281019061003291906100ed565b806000806101000a81548173ffffffffffffffffffffffffffffffffffffffff021916908373ffffffffffffffffffffffffffffffffffffffff1602179055505061011a565b600080fd5b600073ffffffffffffffffffffffffffffffffffffffff82169050919050565b60006100a88261007d565b9050919050565b60006100ba8261009d565b9050919050565b6100ca816100af565b81146100d557600080fd5b50565b6000815190506100e7816100c1565b92915050565b60006020828403121561010357610102610078565b5b6000610111848285016100d8565b91505092915050565b61088a806101296000396000f3fe608060405234801561001057600080fd5b50600436106100415760003560e01c80630f0faef3146100465780635f06534614610062578063fc0c546a1461007e575b600080fd5b610060600480360381019061005b91906104c9565b61009c565b005b61007c600480360381019061007791906104c9565b6102c1565b005b61008661040c565b604051610093919061057b565b60405180910390f35b8160008054906101000a900473ffffffffffffffffffffffffffffffffffffffff1673ffffffffffffffffffffffffffffffffffffffff166370a08231336040518263ffffffff1660e01b81526004016100f691906105a5565b602060405180830381865afa158015610113573d6000803e3d6000fd5b505050506040513d601f19601f8201168201806040525081019061013791906105d5565b1015610178576040517f08c379a000000000000000000000000000000000000000000000000000000000815260040161016f9061065f565b60405180910390fd5b60008054906101000a900473ffffffffffffffffffffffffffffffffffffffff1673ffffffffffffffffffffffffffffffffffffffff1663a9059cbb84846040518363ffffffff1660e01b81526004016101d392919061068e565b6020604051808303816000875af11580156101f2573d6000803e3d6000fd5b505050506040513d601f19601f8201168201806040525081019061021691906106ef565b610255576040517f08c379a000000000000000000000000000000000000000000000000000000000815260040161024c90610768565b60405180910390fd5b8273ffffffffffffffffffffffffffffffffffffffff163373ffffffffffffffffffffffffffffffffffffffff167ff3c3f4a2eb620d4906d0e71a853aed5e409c62169a0d72b7bf57e54edbec815284846040516102b4929190610788565b60405180910390a3505050565b60008054906101000a900473ffffffffffffffffffffffffffffffffffffffff1673ffffffffffffffffffffffffffffffffffffffff166323b872dd3385856040518463ffffffff1660e01b815260040161031e939291906107b1565b6020604051808303816000875af115801561033d573d6000803e3d6000fd5b505050506040513d601f19601f8201168201806040525081019061036191906106ef565b6103a0576040517f08c379a000000000000000000000000000000000000000000000000000000000815260040161039790610834565b60405180910390fd5b8273ffffffffffffffffffffffffffffffffffffffff163373ffffffffffffffffffffffffffffffffffffffff167f2d373585adc380c8714693a2c7b2009a1c53eef8fd1c092cc0b2cfe18f6cf9be84846040516103ff929190610788565b60405180910390a3505050565b60008054906101000a900473ffffffffffffffffffffffffffffffffffffffff1681565b600080fd5b600073ffffffffffffffffffffffffffffffffffffffff82169050919050565b600061046082610435565b9050919050565b61047081610455565b811461047b57600080fd5b50565b60008135905061048d81610467565b92915050565b6000819050919050565b6104a681610493565b81146104b157600080fd5b50565b6000813590506104c38161049d565b92915050565b6000806000606084860312156104e2576104e1610430565b5b60006104f08682870161047e565b9350506020610501868287016104b4565b9250506040610512868287016104b4565b9150509250925092565b6000819050919050565b600061054161053c61053784610435565b61051c565b610435565b9050919050565b600061055382610526565b9050919050565b600061056582610548565b9050919050565b6105758161055a565b82525050565b6000602082019050610590600083018461056c565b92915050565b61059f81610455565b82525050565b60006020820190506105ba6000830184610596565b92915050565b6000815190506105cf8161049d565b92915050565b6000602082840312156105eb576105ea610430565b5b60006105f9848285016105c0565b91505092915050565b600082825260208201905092915050565b7f496e73756666696369656e742062616c616e636520666f7220726566756e6400600082015250565b6000610649601f83610602565b915061065482610613565b602082019050919050565b600060208201905081810360008301526106788161063c565b9050919050565b61068881610493565b82525050565b60006040820190506106a36000830185610596565b6106b0602083018461067f565b9392505050565b60008115159050919050565b6106cc816106b7565b81146106d757600080fd5b50565b6000815190506106e9816106c3565b92915050565b60006020828403121561070557610704610430565b5b6000610713848285016106da565b91505092915050565b7f526566756e64206661696c656400000000000000000000000000000000000000600082015250565b6000610752600d83610602565b915061075d8261071c565b602082019050919050565b6000602082019050818103600083015261078181610745565b9050919050565b600060408201905061079d600083018561067f565b6107aa602083018461067f565b9392505050565b60006060820190506107c66000830186610596565b6107d36020830185610596565b6107e0604083018461067f565b949350505050565b7f5061796d656e74206661696c6564000000000000000000000000000000000000600082015250565b600061081e600e83610602565b9150610829826107e8565b602082019050919050565b6000602082019050818103600083015261084d81610811565b905091905056fea26469706673582212209e7cc1592830e5a61eea2902f4acfc66432279fa01735ac0bf26aa6d4cadcbcf64736f6c63430008140033",
  "linkReferences": {},
  "deployedLinkReferences": {}
}